:020000040800F2
:10000000C0DE0120810200086F230008811600086D
:100010006D230008C3050008A5410008000000008A
:10002000000000000000000000000000C9010008FE
:10003000310B0008000000001D020008A53D00086B
:100040009F0200089F0200089F0200089F0200080C
:100050009F0200089F0200089F0200089F020008FC
:100060009F0200089F0200089F0200089F020008EC
:100070009F0200089F0200089F0200089F020008DC
:100080009F0200089F0200089F0200089F020008CC
:100090009F0200089F0200089F0200089F020008BC
:1000A0009F0200089F0200089F0200089F020008AC
:1000B0009F0200089F0200089F0200089F0200089C
:1000C0009F0200089F0200089F0200089F0200088C
:1000D0009F020008594000089F0200089F02000884
:1000E000570B00089F0200089F0200089F020008AB
:1000F0009F0200089F0200089F0200089F0200085C
:100100009F020008552700089F0200089F02000870
:100110009F0200089F0200082D3E00089F02000871
:100120009F0200089F0200089F0200081D090008A6
:100130009F0200089F0200089F0200089F0200081B
:100140009F0200089F0200089F0200089F0200080B
:100150009F0200089F0200089F0200089F020008FB
:100160009F0200089F0200089F0200089F020008EB
:100170009F0200089F0200089F0200089F020008DB
:100180009F0200089F0200089F0200089F020008CB
:100190009F0200089F0200089F0200089F020008BB
:1001A0009F0200089F0200089F020008DFF814D099
:1001B00000F03EF900F0CAF9004800478DF1000850
:1001C00000F0A2F9C0DE01202A4B19680868B0E8E7
:1001D000F04F80F30988BFF36F8F4FF0000080F37A
:1001E000118870470000000006480068006880F32E
:1001F000088862B661B6BFF34F8FBFF36F8F00DF21
:1002000000BF00BF08ED00E0DFF80C00016841F41A
:1002100070010160704700BF88ED00E0EFF30980D6
:10022000BFF36F8F134B1A681EF0100F08BF20ED3D
:10023000108A20E9F04F106008B44FF0500080F3AE
:100240001188BFF34F8FBFF36F8F10F07DFC4FF01D
:10025000000080F3118808BC19680868B0E8F04F06
:100260001EF0100F08BFB0EC108A80F30988BFF3AE
:100270006F8F70475C000020EFF30580704700002F
:10028000074880470748804707480047FEE7FEE7E2
:10029000FEE7FEE7FEE7FEE7FEE7FEE7FEE7FEE736
:1002A000D13D0008E1270008AD0100082DE9F05F0D
:1002B0000546002092469B468846064681464024D5
:1002C0001BE0284641464746224600F061F8534667
:1002D0005A46C01A914110D311461846224600F0E2
:1002E00048F82D1A67EB01084F46224601200021ED
:1002F00000F03FF817EB00094E41201EA4F1010465
:10030000DFDC484631462A464346BDE8F09FD2B27C
:1003100001E000F8012B491EFBD270470022F6E7EE
:1003200010B513460A4604461946FFF7F0FF20466B
:1003300010BD421C10F8011B0029FBD1801A704728
:1003400010B5002200E0521C835C8C5CA34201D1FA
:10035000002BF8D1D8B2E1B2401A10BD034611F813
:10036000012B00F8012B002AF9D11846704700F044
:100370002AB8202A04DB203A00FA02F10020704754
:100380009140C2F1200320FA03F3194390407047D3
:10039000202A04DB203A21FA02F00021704721FADA
:1003A00002F3D040C2F12002914008431946704741
:1003B000034870470248001D011F8860001D7047F8
:1003C0009C070020704710B500F00DF8016919B1C5
:1003D00000220261884701E080688047AFF3008017
:1003E00010B5AFF3008070B5FFF7E4FF0468054671
:1003F000A4B920200BF03AFB040011D009490020D9
:100400002C60C4E900010849A1602073206160618B
:100410000649A06109B100F01DF8E061204670BDF9
:10042000AFF3008000000000E103000800000000BE
:10043000064C074D06E0E06840F0010394E8070031
:1004400098471034AC42F6D3FFF7B4FEA0EA030895
:10045000D0EA030810B588200BF008FB002801D073
:100460000021017010BD802902D808B1017809B1BE
:1004700000207047012100F8081B704718B100F1F7
:100480000802914201D0002070470021017070479E
:1004900010B5441A0346944209D28418114403E06B
:1004A00011F8013D04F8013D521EF9D210BD40EA99
:1004B0000104A40703D009E010C9121F10C3042AC5
:1004C000FAD203E011F8014B03F8014B521EF9D2A6
:1004D00010BD2DE9F041074615460E4610200BF0E1
:1004E000C5FA04000AD06760C4E9026500F008F8A4
:1004F0000168216004600020BDE8F0810120FBE775
:1005000000487047D40700202DE9F0410646FFF768
:10051000F7FF8046454613E016B1E068B0420ED1C1
:1005200020682860D4E90101D8F800708847204687
:100530000BF06EFAD8F80000B842EBD100E0254687
:100540002C68002CE8D1BDE8F081704770B5054CEF
:10055000054D03E0206820448047241DAC42F9D1BA
:1005600070BD0000D0EA0308DCEA030870B58C18FF
:1005700010F8015B15F0070301D110F8013B2A11B7
:1005800006D110F8012B03E010F8016B01F8016BA4
:100590005B1EF9D12B0705D40023521E0DD401F8A0
:1005A000013BFAE710F8013BCB1A921C03E013F869
:1005B000015B01F8015B521EF9D5A142D8D300209E
:1005C00070BDFEE770B500254FF4803400E0641E76
:1005D00024B1802002F098F80028F8D02CB140F225
:1005E000FF5002F04FF8284670BD032070BD000098
:1005F00070B5054600243B49086800E0086810F023
:10060000450FFBD0410705D50324042002F03AF83A
:10061000204670BDC00705D00124012002F032F849
:10062000204670BD02F06AF8A84201D0102070BDCB
:1006300040F2FF5002F026F8002002F081F82A492B
:10064000084201D1204670BD002801DA1C2070BD8F
:10065000410001D5092070BD810001D50A2070BD7F
:10066000C10001D50B2070BD010101D50C2070BD6A
:10067000410101D50D2070BDC10101D50E2070BD15
:10068000010201D50F2070BD410201D5102070BDBF
:10069000810201D5112070BDC10201D5122070BDAB
:1006A000010301D5132070BD410301D5142070BD95
:1006B000810301D5152070BDC10301D5162070BD81
:1006C000010401D5172070BD410401D5182070BD6B
:1006D000810401D5192070BD000701D51A2070BD15
:1006E000204670BD342C014008E0FFFD10B5002409
:1006F0000E4A116800E0116811F0450FFBD0480761
:1007000005D50324042001F0BDFF204610BDC80715
:1007100005D00124012001F0B5FF204610BD40F2B4
:10072000FF5001F0AFFF204610BD0000342C014007
:1007300010B500240A4A116800E0116811F0450F55
:10074000FBD0480705D50324042001F09BFF204679
:1007500010BD40F2FF5001F095FF204610BD000093
:10076000342C014070B506460C4600251C4A106822
:1007700000E0106810F0450FFBD0410705D50324B9
:10078000042001F07FFF204670BDC00705D0012482
:10079000012001F077FF204670BD01F0AFFFB042AD
:1007A00001D0102070BD40F2FF5001F06BFF00201F
:1007B00001F0C6FF10F4604F03D0810405D513206B
:1007C00070BD000C2080284670BD410401D510206A
:1007D00070BD000401D50F2070BD284670BD00001B
:1007E000342C014010B500204FF480310D4B1A68B5
:1007F00001E0491E1A6812F0450F01D10029F8D115
:1008000009B1510705D50324042001F03BFF204620
:1008100010BD5106FCD50024402001F033FF2046D6
:1008200010BD0000342C014010B50121CC0520463C
:1008300001F0EAFD2046BDE81040002101F0E4BDD2
:1008400001460020024A52680A4200D00120704747
:1008500000B0024030B500242A4B19682A4A1140E2
:1008600019601968026811431960596B21F007017A
:100870005963596B4268114359634168002928D074
:1008800001292DD0022930D0032933D0C1680A01B3
:1008900001690902446924038568214315430D4316
:1008A000996B0D439D638169D963196C6FF30D01D9
:1008B0001964196CC26911431964818C09045A6C5A
:1008C00002F040425A645A6C006A02430A435A6476
:1008D00030BDC1680A02018A0904047D2406DBE7F1
:1008E000C1680A02018A0904D6E7C1684A010169A0
:1008F000C902D1E7C1684A01016989024469E40378
:10090000CAE7000000B00240FCE0FCFF02480168BA
:1009100041F001010160704700B0024002F0CEBD1D
:10092000074A904201D2074801E005481038064ABC
:100930008B0001EA020101D5C160704781607047F8
:1009400010640240006002407D0F7D0F002904D03A
:10095000016841F0010101607047016821F0010167
:10096000016070472DE9F043016821F00101016049
:100970000021016041608160C1600161212141610C
:100980003E493E4A10394FF03D08904203D1C1F82C
:100990000880BDE8F083394A4FF4746518329042FC
:1009A00001D18D60F5E7354A4FF47416303290422C
:1009B00001D18E60EDE7314A4FF0746748329042C2
:1009C00001D18F60E5E72D4B2D4A6033984201D16C
:1009D000CA60DEE7294C2B4B7834A04201D1CB60B2
:1009E000D7E7DFF898C0284C0CF1900C604501D196
:1009F000CC60CEE7DFF884904FF03D5C09F1A809A8
:100A0000484502D1C1F80CC0C3E72049DFF87C900B
:100A10000839484502D1C1F80080BAE7DFF86C8098
:100A200008F11808404501D10D60B2E7174D303587
:100A3000A84201D10E60ACE7144D4835A84201D15F
:100A40000F60A6E7114D11496035091FA84201D179
:100A50000A609EE70D4A7832904201D10B6098E718
:100A60000A4A9032904201D10C6092E7074AA832BC
:100A700090428ED1C1F800C08BE7000010600240A8
:100A80003D000020400F002000003D201064024087
:100A9000002904D0016841F020010160704701681D
:100AA00021F02001016070470B0609D522B143698E
:100AB00043F08003436103E0436923F08003436113
:100AC000802905D001F01E011AB102680A430260B4
:100AD000704702688A4302607047000030B50368BF
:100AE000124A1340CC680A682243D1E905452C43D9
:100AF0002243CC6922430C6A22434C6A22438C6A0B
:100B000022434C6B22438C6B22431A43026042699E
:100B100022F00703D1E90B2422431A4342610A69F8
:100B200042604A6882608968C16030BD3F801CF0C5
:100B3000704701B502E00098401E00900098002820
:100B4000F9D108BD01B502E00098401E0090009860
:100B50000028F9D108BD10B54FF40054204600F02C
:100B600013F8002808D001F00FFB00F089FC2046A4
:100B7000BDE8104000F002B810BD00000149086057
:100B800070470000143C014001460020024A1268F0
:100B90000A4200D001207047143C014030B51B4A86
:100BA00083790168002B2AD013688B431360111DD1
:100BB0000B680468A3430B60017911440B68046857
:100BC00023430B60114C083421680368994321606A
:100BD000231D19680568A94319604179102905D0BA
:100BE00011440A68006802430A6030BD2168026847
:100BF00011432160196800680143196030BD007914
:100C0000104402688A43026030BD0000003C01408D
:100C10002DE9F04387B00121202001F0E7FB0121FD
:100C2000080501F01BFCDFF8B890052207214846B3
:100C300000F00CFA05220821484600F007FA0522C8
:100C40000921484600F002FA8020009002258DF824
:100C500005508DF8045000248DF806408DF80740AB
:100C60006946484600F0B4F9E801009069464846F4
:100C700000F0AEF94FF40078CDF8008069464846A0
:100C800000F0A6F94027009701268DF80460694618
:100C9000484600F09DF9124818300780ADF808402A
:100CA0004FF48270ADF80A00ADF80C40ADF80E506C
:100CB000ADF81060ADF81280ADF81440ADF81640F4
:100CC0000720ADF81800074C02A9204602F0ADFF3E
:100CD0000121204602F006FE07B0BDE8F0830000C7
:100CE000001402400050014000224FF02043102821
:100CF0000AD0B0F5807F09D0B0F5805F09D0D3F875
:100D00005801814309D107E0586EFAE7D3F884000F
:100D1000F7E7D3F8A400F4E701221046704700007B
:100D2000D0E9001211438268C068521E520142EAA3
:100D3000402001430148016070470000500100A0BD
:100D400070B50468A100A1F1C041D1F84011CE0BEB
:100D5000F603D0E901121143D0E903231A431143EA
:100D60004269C36911438269056A11431943426AA2
:100D70002943114331434FF02046002C3CD0D6F894
:100D800040416FF30E042B4322431343C6F8403116
:100D900002689200A2F1C042C2F84011016871B32A
:100DA0008900A1F1C041D1F8481101F07043816A76
:100DB0000A684C68521E641E42EA04148A68521E75
:100DC00044EA02240A8A521E44EA02421A43D6F82E
:100DD000483103F07043CC68898A641E2403491E9D
:100DE00044EA01511943C6F8481100688000A0F197
:100DF000C040C0F8482170BDC6F84011CEE7FFE7FB
:100E0000D6F8481101F07041806A02684368521EAA
:100E10005B1E42EA03138268521E43EA0223C26841
:100E2000521E43EA0233028A521E43EA0243828A76
:100E3000007E521E43EA0252401E42EA006008430E
:100E4000C6F8480170BD000002490A6842EA400045
:100E500008607047540100A02DE9FC470E460024AD
:100E6000002700970197574D4FF0080AC5F800A0DA
:100E7000102068604FF04009C5F80890EF604FF40B
:100E80008068C5F81080284601F090FC1020FFF71C
:100E9000AFFB002832D14C4800890004286037207D
:100EA0006860C5F80890EF60C5F81080284601F02A
:100EB0007DFC3720FFF79CFB00281FD1411E05F168
:100EC00014000160C0F804A0302181600221C160DB
:100ED00007610121416101F0EDFB2F603320686063
:100EE000C5F80890EF60C5F81080284601F05EFC58
:100EF0003320FFF77DFB0546280001D0BDE8FC87C5
:100F00004FF4001A6F46DFF8C48040F22A6908E007
:100F1000504601F0F9FB20B101F042FC47F82400F3
:100F2000641CD8F8000010EA090FF1D0082001F085
:100F3000EBFB20B1082001F0A5FB0420DEE7022036
:100F400001F0E2FB20B1022001F09CFB0220D5E77A
:100F5000202001F0D9FB20B1202001F093FB0620D6
:100F6000CCE74FF40074204601F0CEFB20B12046C0
:100F700001F088FB0720C1E740F2FF5001F082FB3F
:100F800000980099000601F47F4140EA0120009991
:100F900001F47F0140EA1120009940EA116070607D
:100FA00001980199000601F47F4140EA012001996E
:100FB00001F47F0140EA1120019940EA116030609C
:100FC00028469BE7D828002038000020342C014018
:100FD0002DE9F041002201274FF0030C07FA02F53A
:100FE0000B682B40AB422CD1066853000CFA03F47B
:100FF000A64306600E79D0F800809E4046EA0806B7
:1010000006600E79012E01D0022E12D18668A64309
:1010100086604E79D0F808809E4046EA08068660D1
:101020004668AE43466045688E799640B6B2354311
:101030004560C568A543C560CC799C40C3681C4326
:10104000C460521C102AC9D3BDE8F08110B54B070B
:10105000DB0E9A40C90800EB8100016A0F249C4016
:10106000A1430162016A1143016210BD41837047CF
:101070000183704742694A4042617047002A01D0AB
:1010800001837047418370477CB500200090019038
:1010900080258DF8005048208DF801000622694611
:1010A000BA2000F049F8002801DA00207CBD9DF844
:1010B00002009DF8031000EB012086B29DF80400A9
:1010C0009DF8051000EB012084B28DF800504D20F2
:1010D0008DF8010003226946BA2000F02DF800289F
:1010E00001DA00207CBD9DF8020000F003032246D7
:1010F000314602A00AF078FC01207CBD3C3C2D4723
:1011000054502D494E464F2D3E3E20585F4D41587C
:10111000203D2025642C20595F4D4158203D20253D
:10112000642C2054524947474552203D20307825B1
:101130003032780A00000000F0B587B00E4617463E
:101140004FF0FF3500240021ADF806108DF80400A3
:101150000221ADF8081003960121ADF812108DF8A8
:101160001000B81EADF81400B01C069007E0022174
:1011700001A800F0E8FC0546022D02D0641C052CF5
:10118000F5DB052C08DB707831782B4640EA01212D
:10119000BA1E03480AF028FC07B02846F0BD00003C
:1011A000F0E9030838B50D48006800900024651E7A
:1011B0000DE003226946BA20FFF7BEFF45B2002DBD
:1011C00001DD284638BD214605A00AF00DFC204669
:1011D000641CE4B20528ECD3284638BD84CD03084E
:1011E0003C3C2D4754502D4552524F522D3E3E20EF
:1011F00047545020693263207465737420666169B6
:101200006C65642074696D652025642E0A000000F9
:10121000FEB50E4617464FF0FF3500240021ADF80D
:1012200002108DF80000ADF80470029607E001216D
:10123000684600F088FC0546012D02D0641C052C90
:10124000F5DB052C08DB707831782B4640EA01216C
:10125000BA1E02480AF0C8FB2846FEBD40EA030851
:101260002DE9F0410024B82500F062FCFFF79AFF59
:101270000646002E05DA21A00AF0B6FB3046BDE88E
:10128000F08100F057F82848007888B1DFF898809E
:1012900008F1C308BA27254EF021B01CFFF73EF82D
:1012A0003A464146B01CFFF7F3F80221AA1C09E0B8
:1012B000DFF8748008F10908BA27ECE7705C204475
:1012C000C4B2491C9142F9DBE143491C7019817099
:1012D0000121C17000242A1D1449BA20FFF798FF8C
:1012E000002802DC641C052CF5DB1148FFF721FC0B
:1012F00000F040FAFFF7C8FE0020C0E73C3C2D4755
:1013000054502D4552524F522D3E3E2049324320DB
:10131000636F6D6D756E69636174696F6E204552A0
:10132000524F52210A000000D00000204D02002040
:10133000FFFF0F0030B585B02C480169C068CDE9CA
:101340000301082203A9BA20FFF7F6FE0446200095
:1013500005D527A00AF048FB204605B030BD9DF812
:1013600011002E4DA0B19DF812109DF81320CDE96B
:10137000012100909DF810309DF80F209DF80E106F
:1013800027A00AF031FB9DF80E0039281ED02BE073
:101390009DF812009DF81310CDE900109DF8103053
:1013A0009DF80F209DF80E1029A00AF01DFB9DF856
:1013B0000E00392818D19DF80F00312814D19DF85E
:1013C0001000312810D1012028700DE09DF80F0089
:1013D000312809D19DF81000352805D19DF811005C
:1013E000372801D1002028702046B6E784CD0308B5
:1013F0003C3C2D4754502D4552524F522D3E3E20DD
:1014000047545020726561642076657273696F6E0F
:10141000206661696C65640A00000000D00000204D
:101420003C3C2D4754502D494E464F2D3E3E2049C1
:1014300043322056657273696F6E3A2025632563C7
:10144000256325635F25303278253032780A000025
:101450003C3C2D4754502D494E464F2D3E3E204991
:1014600043312056657273696F6E3A202563256398
:1014700025635F25303278253032780A000000007D
:1014800000F02EB82DE9F04104460E461546DFF86F
:1014900024802B46A8F10A0738F9141037F91400F4
:1014A00032460DF025FA27F8146028F81450BDE8EC
:1014B000F08100004A03002070B50446074EA6F1F3
:1014C0000A0536F9141035F914000DF01DFA4FF025
:1014D000FF3025F8140026F8140070BD4A030020E0
:1014E0002DE9F04F97B04CA00068169028210DF11F
:1014F0002C090CA8FEF712FF484C60680B904FF0C7
:10150000BA0B00260C220BA95846FFF715FE014620
:10151000002905DA42A00AF067FA17B0BDE8F08F9B
:101520009DF82E000028F8D0010669D500F00F05BF
:10153000052D65D8012D14D9242101AF381DFEF7E2
:10154000EDFEA0680190681E022101EBC002044676
:1015500001A95846FFF7F0FDE200B91C0EA8FEF7FE
:1015600097FFDFF8ECA00AF10408BAF80200A842DD
:1015700015D818E000246F1E0EE009EBC400C078F7
:1015800000F00F0118F80600884207D0BC4201DBCA
:10159000FFF792FF641CE4B2AC42EED3761CBAF8BB
:1015A00002008642E6DBDDB1002416E009EBC40050
:1015B000C17801F00F0608F804600179427941EA28
:1015C00002218279C37942EA0322037A407A43EA0C
:1015D00000233046FFF756FF641CAC42E6DB0DE00B
:1015E000BAF8020050B1002404E018F80400FFF734
:1015F00063FF641CBAF802008442F6DBAAF80250CA
:10160000032216A95846FFF703FE002885DA11A029
:101610000AF0EAF981E70000814E000084CD03085A
:101620003C3C2D4754502D4552524F522D3E3E20AA
:10163000493243207472616E7366657220657272FE
:101640006F722E206572726E6F3A25640A200A004E
:10165000D00000203C3C2D4754502D494E464F2D84
:101660003E3E2049324320777269746520656E647E
:101670005F636D64206572726F72210A0000000062
:10168000FEE7002904D0018841F4806101807047A1
:10169000018821F4806101807047034600209A8A06
:1016A0001B8B1B041A4322F07F42914300D101207F
:1016B0007047002904D0018841F001010180704782
:1016C000018821F001010180704700002DE9FC41F3
:1016D0000121880500F0B4FE0121882000F086FE7B
:1016E0000121880300F0BAFE204F0422114638463B
:1016F000FFF7ACFC042205213846FFF7A7FC1020B9
:10170000009002248DF804408DF8054001258DF8E5
:10171000065000268DF8076069463846FFF758FCEA
:101720002020009069463846FFF752FCA002009046
:101730008DF804508DF805408DF806608DF807404F
:101740000B4F69463846FFF743FC200300908DF8A5
:1017500004508DF805408DF806608DF80740694605
:101760003846FFF735FCBDE8FC810000001C024054
:10177000000C024030B585B04FF4005500950024B0
:101780008DF8044002208DF805008DF80740694669
:101790001248FFF71DFC0D21032002F083FA039588
:1017A0008DF8104008208DF8110001258DF8125099
:1017B00003A8FFF7F3F94FF4407000F00DFE282066
:1017C0008DF808008DF809408DF80A408DF80B500F
:1017D00002A800F0CDFD05B030BD0000000C0240B5
:1017E000002904D0018841F480710180704701888C
:1017F00021F4807101807047002904D0018841F4F0
:10180000007101807047018821F4007101807047E8
:101810000CB50246002000920A0F019221F07F4190
:10182000019A002A03D0009A1432009203E0090CB6
:10183000009A18320092009A12680A4200D00120E1
:101840000CBD00007FB504460D46A08820F03F0681
:10185000684600F01FFE02982749B0FBF1F189B2FB
:101860000E43A680228822F001022280234B2A68A0
:101870009A4209D85200B0FBF2F080B2042800D29C
:101880000420491C218423E0EB88A3F53F46FF3E5A
:101890000BD002EBC20303EB0212B0FBF2F080B2FA
:1018A00040F48040020506D007E002EB4202B0FBA4
:1018B000F2F080B2F6E740F0010040F400404FF44F
:1018C000967251434FF47A72B1FBF2F1491C2184B4
:1018D000A083208840F00100208020884FF6F53159
:1018E0000840A9886A89114301432180A889298970
:1018F000084320817FBD000040420F00A086010008
:101900001FB50020ADF804004BF6FF70ADF80600DF
:101910000A20ADF808004FF48060ADF80A0000011D
:10192000ADF80C0007480090074C69462046FFF7C9
:1019300089FF01212046FFF7BCFE01212046FFF769
:10194000A0FE1FBD801A0600005800402DE9F05F80
:1019500083460D4614463E4E4FF4204737604FF401
:101960000038DFF8F09008E03068411E316004D2A2
:10197000BDE8F05F002000F0B9B841464846FFF7E7
:1019800047FF0028F0D101214846FFF729FF4FF417
:101990008058C6F80080DFF8C0A008E03068411E1B
:1019A000316004D2BDE8F05F012000F09FB85146DD
:1019B0004846FFF772FE0028F0D0012259464846FB
:1019C00000F088F8C6F80080DFF88C8008F1010884
:1019D00008E03168481E306004D2BDE8F05F0220A4
:1019E00000F084B841464846FFF757FE0028F0D083
:1019F00025E0012C07D100214846FFF742FE0121D6
:101A00004846FFF7F9FE3760DFF84C8008F13F08E1
:101A100008E03168481E306004D2BDE8F05F032062
:101A200000F064B841464846FFF737FE0028F0D082
:101A3000484600F013F805F8010B641EA4B2002C10
:101A4000D7D101214846FFF71CFE0020BDE8F09FDA
:101A5000540300200058004001000300008AC0B277
:101A6000704700002DE9FC474FF400560096012016
:101A70008DF8040002248DF8054000258DF80650ED
:101A80008DF80740114F69463846FFF7A1FA4FF429
:101A9000006841463846FFF7E9FADFF834904846D7
:101AA000FFF750F841463846FFF7E2FA4846FFF79D
:101AB00049F800968DF804508DF805408DF80750D0
:101AC00069463846FFF784FABDE8FC87000C0240FF
:101AD000FFFF0F00002A02D041F0010101E001F0F8
:101AE000FE010182704701827047000010B5014677
:101AF00002A009F079FFFF2010BD00003C3C2D47FB
:101B000054502D4552524F522D3E3E2049324320D3
:101B1000E7AD89E5BE85E8B685E697B621657272C0
:101B20006F72436F6465203D2025640A0000000049
:101B300010B5FFF7CBFDFFF7E3FEFFF793FFBDE81E
:101B40001040FFF717BE70B505460E460024002072
:101B500014E004EB440005EB80039978C90706D034
:101B60009A8815F820009968FFF7F0FE05E01A79C9
:101B700015F82000996800F009F8641C08B9B4420F
:101B8000E7D1002800D1204670BD00002DE9F047C4
:101B900080460D461446384E4FF4204030604FF4D6
:101BA0000039364F08E03068411E316004D2BDE88C
:101BB000F0470420FFF79ABF49463846FFF728FE52
:101BC0000028F0D101213846FFF70AFE4FF4805972
:101BD000C6F80090DFF8A8A008E03068411E316028
:101BE00004D2BDE8F0470520FFF780BF51463846D4
:101BF000FFF753FD0028F0D0002241463846FFF79A
:101C000069FFC6F80090DFF87C8008E03168481E64
:101C1000306004D2BDE8F0470620FFF767BF4146B9
:101C20003846FFF73AFD0028F0D0DFF8588008F179
:101C3000020816E029783846FFF755FF6D1CC6F8F4
:101C4000009008E03068401E306004D2BDE8F047E4
:101C50000720FFF74BBF41463846FFF71EFD00281F
:101C6000F0D0641EE4B2E5D201213846FFF7C4FD8E
:101C70000020BDE8F0870000540300200058004019
:101C800001000300820007002DE9FC5F012140F202
:101C9000FF1000F0ABFB4FF00408CDF800800220ED
:101CA0008DF805008DF8040000208DF806008DF8F1
:101CB00007006946AA48FFF78BF90E220221A848BF
:101CC000FFF7C4F94FF00809CDF800906946A44821
:101CD000FFF77EF90E220321A148FFF7B7F94FF471
:101CE000807ACDF800A069469D48FFF771F90E2271
:101CF00008219B48FFF7AAF90124009469469948F6
:101D0000FFF766F9092200219648FFF79FF94FF483
:101D1000006BCDF800B069469348FFF759F90E22E1
:101D20000B219148FFF792F92003009069468E48F5
:101D3000FFF74EF90E220C218B48FFF787F902209E
:101D4000009069468748FFF743F909220121854839
:101D5000FFF77CF94025009569468448FFF738F97C
:101D60000E2206218148FFF771F920200090694674
:101D70007F48FFF72DF90E2205217D48FFF766F910
:101D8000009569467A48FFF723F90E220621784824
:101D9000FFF75CF96003009069467148FFF718F996
:101DA0000E220D216E48FFF751F9A60200966946F2
:101DB0006E48FFF70DF909220A216C48FFF746F932
:101DC000E003009069466648FFF702F90E220F21F2
:101DD0006348FFF73BF9009469466648FFF7F8F857
:101DE0000E2200216348FFF731F9802700976946EA
:101DF0006148FFF7EDF80E2207215F48FFF726F94B
:101E0000CDF8008069465B48FFF7E2F80E22022118
:101E10005848FFF71BF94FF01008CDF800806946CD
:101E20005348FFF7D5F80E2204215148FFF70EF969
:101E30002003009069464D48FFF7CAF80E220C2196
:101E40004A48FFF703F900954C4D69462846FFF7CD
:101E5000BFF80E2206212846FFF7F8F8CDF800B0AB
:101E600069464248FFF7B4F80E220B213F48FFF7BE
:101E7000EDF8CDF8008069463E48FFF7A9F80E223C
:101E800004213C48FFF7E2F8CDF800906946364857
:101E9000FFF79EF80E2203213348FFF7D7F8CDF85D
:101EA00000A069462F48FFF793F80E2208212D481D
:101EB000FFF7CCF84FF40079CDF800906946294837
:101EC000FFF786F80E2209212648FFF7BFF8009792
:101ED00069462648FFF77CF80E2207212348FFF7C2
:101EE000B5F8009669462348FFF772F80E220A21DA
:101EF0002048FFF7ABF8CDF8009069461D48FFF782
:101F000067F80E2209211B48FFF7A0F800961C4E27
:101F100069463046FFF75CF80E220A213046FFF78B
:101F200095F8CDF8008002208DF805008DF804406A
:101F300000208DF806008DF8074069462846FFF717
:101F400047F8009769462846FFF742F810212846CF
:101F5000FFF78EF880212846FFF78AF8BDE8FC9F3E
:101F6000001C024000040240000002400018024031
:101F7000001002400020024000080240000C024015
:101F80000014024000B58FB00121880600F066FA07
:101F90000121C80500F02AFAFFF776FE00F020FCC8
:101FA000062207214FF4D27000F0F2FA4FF400300D
:101FB00000F0DEFA012000F0E5FA3D2000F0BCFA66
:101FC0000028FAD0002000900190029003900C901D
:101FD0000D900E90049005902E20069017200790EB
:101FE00040F24E30089040F2F71009904FF45970CB
:101FF0000A9040F20D200B90684600F003F9012092
:1020000000F0F0F800F00EF8012000F0EBF80020EE
:1020100000F052F8012000F04FF8FF2000F060F8C7
:102020000FB000BD30B591B02F20019040F24E307E
:1020300002901820039040F2F710049000200590C1
:10204000FF2006900790089009900A904FF4806056
:102050000B9007240C9440F683400E90C01E0F9006
:102060004FF4F070109011480D90114D01A92846C1
:1020700000F02AF90F490D914FF4C0610B910C94B7
:102080000B4C01A98034204600F01EF9012000F01D
:1020900067F90121284600F00BF90121204600F0E4
:1020A00007F9012000F05CF911B030BD000040D00C
:1020B00084680140007057D00649002804D00648C3
:1020C00008600120486070470448086000204860AC
:1020D000704700002C000020007057D0000040D056
:1020E00010B509494968002908D00146074800F0A1
:1020F000DDF8BDE81040012000F032B90146034888
:10210000803800F0D3F8F4E72C0000200469014087
:102110007CB50121802000F069F94FF480540094CF
:1021200001208DF8040002208DF8050000208DF8B4
:102130000700054D69462846FEF74AFF0122214661
:102140002846FEF79BFF7CBD001C02407CB50121A8
:10215000802000F04BF94FF40064009401208DF8CA
:10216000040002208DF8050000208DF80700054DC1
:1021700069462846FEF72CFF012221462846FEF735
:102180007DFF7CBD001C02404FF400610148FEF75A
:1021900071BF0000001C02407CB50121802000F0CE
:1021A00025F94FF48064009401208DF8040002208A
:1021B0008DF8050000208DF80700054D694628467A
:1021C000FEF706FF012221462846FEF757FF7CBD99
:1021D000001C02404FF480610148FEF74BBF000035
:1021E000001C02400649002804D0086840F00100A5
:1021F00008607047086820F0010008607047000020
:102200001868014030B5264A136826490B40136010
:10221000038A1B04146845692C431C431460121D77
:1022200013680B401360038B1B041468C5692C43AF
:102230001C431460121D13680B401360038C1B04B5
:102240001468456A2C431C431460121D13680B402C
:102250001360018D09041368C46A23430B431360A0
:10226000111D0A68104B1A400A60D0E900231A4376
:10227000D0E9023423431A430B681A430A60416BC6
:102280000A02018E0B04064924310C6804F07F44D5
:102290000C600C68806B134304431C430C6030BD1E
:1022A0000868014000F800F08F88FE0F4161704718
:1022B000002904D0016841F0010101607047016804
:1022C00021F001010160704770B58A8812044368EB
:1022D00003F4704343600B68134343608A8912041C
:1022E000836803F4704383608B68134383600269DF
:1022F00022F0070202610A690261CA6913020A8CAC
:10230000120491F8244024068569002585618E69B0
:1023100022431E4316438661426922F0FF02426156
:102320004A694261C26940F207739A43C261D1E9C6
:102330000A231A43C261826A85620A6B82620A8F2B
:102340001204C36A03F0E023C3624B6B1343C362FE
:10235000026B6FF30A020263C96B016370BD000078
:10236000014908607047000024680140FEE770479B
:1023700030B50F23C27801250178002A1FD0154AF5
:10238000126802F4E062C2F5E062C2F30722C2F111
:102390000404D3404278A24084781C4014432201B4
:1023A00001F1E02181F80024007800F01F018D4048
:1023B0004009800000F1E020C0F8005130BD01F07C
:1023C0001F0085404809800000F1E020C0F88051DE
:1023D00030BD00000CED00E00249084302490860EE
:1023E000704700000000FA050CED00E0054A0029E6
:1023F00003D0116801431160704711688143116077
:102400007047000030380240054A002903D01168A7
:1024100001431160704711688143116070470000EB
:1024200010380240054A002903D0116801431160A9
:1024300070471168814311607047000038380240CE
:10244000054A002903D011680143116070471168E3
:10245000814311607047000040380240054A00295E
:1024600003D0116801431160704711688143116006
:102470007047000044380240054A002903D0116823
:10248000014311607047116881431160704700007B
:102490002438024070B5244B196801F00C01234C1C
:1024A00000291ED0224E04291DD008291DD0046009
:1024B000196801F0F00109091E4A545C0168E14005
:1024C00041601C6804F4E054A40A145D21FA04F489
:1024D00084601B6803F460435B0BD25CD140C16035
:1024E00070BD0460E4E70660E2E70F4A121F11685E
:1024F000C1F38055116801F03F0135B1B6FBF1F130
:102500001468C4F38814614305E0B4FBF1F1146866
:10251000C4F3881461431268C2F30142521C520092
:10252000B1FBF2F10160C3E7083802400024F40077
:1025300040787D0114000020024600205109012945
:102540000BD002290DD00949096802F01F020123AE
:1025500093400B4200D00120704704497439096848
:10256000F3E70249091F0968EFE7000074380240E9
:10257000034A116821F440310143116070470000A3
:102580008C3802400149086770470000000047424C
:10259000800140EA0160024940EA02700860704729
:1025A000883802402DE9FC47064600240094019437
:1025B000002000F0C5F8800102D50E20BDE8FC87A0
:1025C0002E4D6946288980B2FEF746FC0028F5D1D9
:1025D00037202B4F4FF0060A4FF040094FF4806828
:1025E000012E22D00199C90345D5298909043960F2
:1025F0007860C7F80890FC60C7F81080384600F093
:10260000D5F83720FDF7F4FF0028D7D13C60C7F894
:1026100004A0C7F80890FC60C7F81080384600F0A6
:10262000C5F80620FDF7E4FFC8E70199490320D566
:102630002989090439607860C7F80890FC60C7F8F8
:1026400010800F4800F0B2F83720FDF7D1FF0028C6
:10265000B4D102203860C7F804A0C7F80890FC6025
:10266000C7F81080064800F0A1F80620FDF7C0FF6B
:10267000A4E72520A2E72520A0E7000038000020DD
:10268000D82800200149086070470000382C01401C
:102690000149086070470000382C0140014908607A
:1026A00070470000A0802542014908607047000083
:1026B0008C85254210B50A4A01681160121D4168D7
:1026C0001160141D216821F0F701D0E902231A439B
:1026D000D0E9043003431A430A43226010BD0000CE
:1026E000242C014010B50121CC022046FFF7C4FE86
:1026F0002046BDE810400021FFF7BEBE014800683B
:10270000C0B27047102C014001460020024A1268F6
:102710000A4200D001207047342C014001460020BD
:10272000024A12680A4200D001207047342C01404E
:102730000248006800F0030070470000002C0140D0
:1027400008B50349084400900098006808BD0000DF
:10275000142C014000F0C6BE054A002903D01168C0
:102760000143116070471168814311607047000098
:102770003C2C014030B5094B196847F6FF62914384
:10278000027D8468C568224344682C432243046860
:102790000069224302430A431A6030BD042C014001
:1027A0000148006870470000802C014010B5084ABD
:1027B00001681160141D21686FF30A01D0E901233B
:1027C0001A43D0E9033003431A430A43226010BD81
:1027D000082C01400149086070470000002C0140AE
:1027E00000B593B000F028F801210846FFF71AFE63
:1027F0000220019007220292042103910492059085
:102800000690079001200890002009900A9110215D
:102810000B9140210C9189000D910E90C9000F91F0
:1028200049001091119001A8129008A8FEF788FAAB
:1028300000F0C4F913B000BD2DE9FC5F0121FC20BC
:10284000FFF7D4FD02208DF804008DF8050000206C
:102850008DF806008DF80700012000906946D148E8
:10286000FEF7B6FB0C220021CE48FEF7EFFB02205C
:1028700000906946CB48FEF7ABFB0C220121C9480A
:10288000FEF7E4FB042000906946C648FEF7A0FB73
:102890000C220221C348FEF7D9FB082000906946AC
:1028A000C048FEF795FB0C220321BE48FEF7CEFB85
:1028B000102600966946BB48FEF78AFB0C220421CD
:1028C000B848FEF7C3FB202700976946B548FEF7D6
:1028D0007FFB0C220521B348FEF7B8FB4FF480586C
:1028E000CDF800806946AF48FEF772FB0C22114616
:1028F000AC48FEF7ABFB4FF40059CDF800906946A9
:10290000A848FEF765FB0C220D21A648FEF79EFBAA
:10291000B50200956946A348FEF75AFB0C220E212A
:10292000A048FEF793FB6C00009469469D48FEF7B3
:102930004FFB0C220F219B48FEF788FB01200090E3
:1029400069469948FEF744FB0C2200219648FEF7A1
:102950007DFB0220009069469348FEF739FB0C226C
:1029600001219148FEF772FB009669468E48FEF7FA
:102970002FFB0C2204218C48FEF768FB0097694668
:102980008948FEF725FB0C2205218748FEF75EFBF0
:10299000009569468548FEF71BFB0C220E218348F3
:1029A000FEF754FB009469468048FEF711FB0C22A9
:1029B0000F217E48FEF74AFB0120009069467B48C4
:1029C000FEF706FB0C2200217848FEF73FFB0220B1
:1029D000009069467548FEF7FBFA0C220121734806
:1029E000FEF734FB8020009069467148FEF7F0FA4C
:1029F0000C2207216E48FEF729FBE6110096694676
:102A00006B48FEF7E5FA0C2208216948FEF71EFB29
:102A10004FF4007ACDF800A069466548FEF7D8FA71
:102A20000C2209216248FEF711FB4FF4806BCDF8B0
:102A300000B069465E48FEF7CBFA0C220A215C48DA
:102A4000FEF704FB2711009769465948FEF7C0FAC4
:102A50000C220B215648FEF7F9FACDF800806946A2
:102A60005348FEF7B5FA0C2211465148FEF7EEFA2C
:102A7000CDF8009069464E48FEF7AAFA0C220D21C7
:102A80004B48FEF7E3FA009569464948FEF7A0FA7D
:102A90000C220E214648FEF7D9FA009469464448B4
:102AA000FEF796FA0C220F214148FEF7CFFA009666
:102AB00069463E48FEF78CFA0C2208213B48FEF797
:102AC000C5FACDF800A069463848FEF781FA0C2215
:102AD00009213648FEF7BAFACDF800B06946334806
:102AE000FEF776FA0C220A213048FEF7AFFA4020B2
:102AF0000090304D69462846FEF76AFA0C220621FE
:102B00002846FEF7A3FA01200090DFF8AC80694662
:102B10004046FEF75DFA0C2200214046FEF796FA89
:102B2000009769461F48FEF753FA0C220B211D48F7
:102B3000FEF78CFA009469461B48FEF749FA0C220E
:102B40000F211948FEF782FA009669461648FEF7EB
:102B50003FFA0C2208211448FEF778FA80210091F0
:102B600069462846FEF734FA0C2207212846FEF76C
:102B70006DFA0220009069460D48FEF729FA0C22F2
:102B800001210B48FEF762FA0120009069460848CF
:102B9000FEF71EFA0C2200210548FEF757FABDE8A1
:102BA000FC9F00000014024000180240000C02408C
:102BB00000100240001C0240000802402DE9FF41C5
:102BC00001260096082501950024029403942021F3
:102BD0000120FEF789F80028F9D16846FEF7A0F831
:102BE0000A2000F039F80227009701950294039417
:102BF00020210120FEF778F80028F9D16846FEF779
:102C00008FF8032000900195029703942021012062
:102C1000FEF76AF80028F9D16846FEF781F840F21D
:102C20002220042100910195029603902021012089
:102C3000FEF75AF80028F9D16846FEF771F840F21D
:102C40006A50FEF701F920210120FEF74DF8002817
:102C5000F9D1BDE8FF81000001B581B005490198B7
:102C60004843009002E00098401E00900098002821
:102C7000F9D10CBDA086010008B5012000909DF897
:102C8000000008BD2DE9F041014600241C484068C1
:102C9000032805D038B1012805D0022803D02DE043
:102CA0002720BDE8F081B1F5805F0CD04FF40067BC
:102CB0000026144DB94212D10120FFF773FC0446DF
:102CC000200002D01AE02720EBE72E752E606E6000
:102CD000AE60EF602E610B48FFF74CFD0EE0002068
:102CE000FFF760FC0446200008D12E752E606E6050
:102CF000AE60EE602E610348FFF73CFD2046D0E752
:102D000038000020C02800202DE9F04397494F6883
:102D100080F856700989A0F85410DFF854C2DCF826
:102D200000100A0E93090370C2F38303437002F08C
:102D3000030282700A0CC2700A0A02714171DCF847
:102D40000420110E0901C180C2F30741C38843EA80
:102D50001113C38001F00F010172C2F30721CB09E7
:102D60004372C1F380138372C1F34013C372C1F382
:102D7000001303730023437364460126D4F80880CC
:102D8000002F4FEA1864C8F30745C8F3072904D099
:102D9000012F02D0022F3AD051E08907090D0161BD
:102DA000D1B2026942EA81010161016941EA9411EB
:102DB0000161C4F3C201017504F00701417569099D
:102DC0008175C5F38201C175A907490F017649468E
:102DD000027E42EAD11202760269521C047EA41CD1
:102DE00006FA04F9A2FB094703FB09774FEAE975E4
:102DF00002FB0575027A06FA02F70765A4FB0729AC
:102E000005FB079504FB0354C0E9122417E0910663
:102E1000890A0161016941EA0421016101692943CB
:102E2000016149460269521C43F10004E40444EA8A
:102E30005234D204C0E912244FF4007202651C30EF
:102E4000C1F3801200F8032C8906490E00F8021C19
:102E500008F0FF0110F8022C42EAD11200F8022C0F
:102E600001F07F0100F8011CDCF80C20110ECC09E8
:102E70000470C1F341144470C1F382048470890763
:102E8000090FC170C2F30741C47844EA9114C470B9
:102E9000C1F340140471437101F001018171C2F367
:102EA0000721CC09C471C1F380140472C1F340142A
:102EB0004472C1F300148472C1F38104C47201F03E
:102EC00003010173D1B2490841738673284A103255
:102ED00011680C0E04740C0C24024482C1F3072404
:102EE000458A254345820906416151680C0E4569B2
:102EF00045EA04444461C1F30744456945EA0424B2
:102F00004461C1F307244569254345610176916811
:102F10000C0E44760C0C2406C461C1F30724C56969
:102F200045EA0444C461C9B2C46944EA0121C161EB
:102F3000D1680A0EC4691443C461C1F3074290F812
:102F4000204044EA121480F820401207120D4284F7
:102F5000C1F30722448C14434484C9B2490880F861
:102F6000241080F825601846BDE8F0833800002062
:102F70003828002008B500200090FFF77DFE0128CA
:102F800001D0FF2008BD684600F078FB08B1FF20A3
:102F900008BD0098C0F3432008BD10B5FFF7EAFF55
:102FA000042803D0FF2803D0012010BD002010BD4D
:102FB000022010BD7CB5002401944FF4C060FFF7DF
:102FC0000BFA31208DF8000001258DF801508DF8A5
:102FD00002408DF803506846FFF7CAF93B208DF890
:102FE00000008DF801506846FFF7C2F900F052F971
:102FF000FFF778FB00F0A0F901909DF8040010B1F4
:103000009DF804007CBD00F02FF801909DF80400AD
:1030100010B19DF804007CBD124804750460446042
:103020008460C4600461FFF7A5FB0E485838FFF7C1
:103030006BFE01909DF8040040B90A480021583801
:10304000B0F85400000400F003FB01909DF8040068
:1030500020B94FF40060FFF715FE01909DF80400C1
:103060007CBD0000C02800202DE9F84F002401207D
:103070000090FFF75DFBE0B1DFF8FC8000263F4DDC
:10308000D8F804004FF0C0094FF4806704282AD014
:103090002E6002206860C5F80890EE602F61284617
:1030A000FFF784FBFDF722FB0446200003D0BDE8B8
:1030B000F88F2520FBE70020FFF742FBDFF8BCA0DC
:1030C000AAF1900ACAF800000420FFF739FBCAF8F9
:1030D00004000820FFF734FBCAF808000C20FFF7B3
:1030E0002FFBCAF80C00D8F8040028B1012803D03F
:1030F000062801D0022811D12E60032068604020EC
:10310000A860EE602F611D48FFF750FB6946032061
:10311000FDF728FB0446200000D0C8E7D8F80400DB
:10312000042826D0BDF80000C8F808000004286074
:1031300009206860C5F80890EE602F610F48FFF71E
:1031400035FBFDF7D3FA0446200000D0AFE700209E
:10315000FFF7F6FA094DA03D28600420FFF7F0FACA
:1031600068600820FFF7ECFAA8600C20FFF7E8FA87
:10317000E86020469BE7000038000020D8280020A7
:1031800030B58FB004461E4D4FF0FA512846FDF77A
:10319000C7FB00212846FDF7D9FB2846FDF7E2FBD7
:1031A0004FF00060009017480190029400200390B7
:1031B00001210491059089020691890007918900F7
:1031C000089109904FF440300A9004200B9003209E
:1031D0000C9048020D9080100E9069462846FDF72D
:1031E0007DFC012210212846FDF75EFC20212846A7
:1031F000FDF74EFC01212846FDF7A8FB0FB030BDBE
:1032000058640240802C014030B58FB004461F4DF9
:103210004FF0FA512846FDF783FB00212846FDF7C1
:1032200095FB2846FDF79EFB4FF000600090184884
:10323000019002944020039001200490002005900A
:1032400029150691890007918900089109904FF48A
:1032500040300A9004200B9003200C9048020D90FF
:1032600080100E9069462846FDF738FC0122102197
:103270002846FDF719FC20212846FDF709FC01210D
:103280002846FDF763FB0FB030BD000058640240D4
:10329000802C01407CB501210C20FFF7A7F8244DBC
:1032A0000C2208212846FDF7D1FE0C2209212846D0
:1032B000FDF7CCFE0C220A212846FDF7C7FE0C22A2
:1032C0000B212846FDF7C2FE0C2211462846FDF7C9
:1032D000BDFE184E0C2202213046FDF7B7FE4FF41A
:1032E0007060009002218DF805108DF80410002404
:1032F0008DF8064001218DF8071069462846FDF734
:1033000067FE0421009169463046FDF761FEA8146E
:1033100000908DF8074069462846FDF759FE0121C7
:10332000C802FFF79BF801218805FFF75FF87CBD15
:1033300000080240000C02402DE9F84F00270097DA
:10334000BB460024A2460025594876210175076036
:1033500047608760C7600761FFF70CFA0320FFF73B
:1033600039FA0120FFF79AF9514E18363760776025
:10337000B760F7604FF48069C6F810903046FFF7E9
:1033800015FAFDF71FF900909DF8000018B19DF89F
:103390000000BDE8F88F4FF4D570306008207060F1
:1033A0004FF04008C6F80880F760C6F81090404813
:1033B0001830FFF7FBF9FDF715FA00909DF80000B3
:1033C00018B3376037207060C6F80880F760C6F819
:1033D000109037481830FFF7E9F93720FDF708F962
:1033E0000090376037207060C6F80880F760C6F834
:1033F00010902F481830FFF7D9F93720FDF7F8F86B
:1034000000909DF8000090B34FE02A4801214160F0
:103410008D07E6E7376037207060C6F80880F760F0
:10342000C6F8109022481830FFF7C0F93720FDF792
:10343000DFF800909DF8000010B19DF80000A8E7AB
:103440001D482843306029207060C6F80880F76066
:10345000C6F8109016481830FFF7A8F9FDF768F97C
:1034600000909DF8000018B19DF8000091E706E07B
:103470000020FFF765F983464FEADB7A641CBAF156
:10348000000F03D14FF6FF708442C3D34FF6FF7095
:10349000844204D31B2000909DF8000079E71BF0C4
:1034A000804F02D00348022141609DF8000070E780
:1034B000C028002038000020000010800748006865
:1034C00010F0C05F08D006490120486103484FF062
:1034D000C2515830FDF724BA704700000064024022
:1034E0003800002070B54FF480752846FFF716F9B4
:1034F000214C38B1002020702846FFF7C9F8012080
:10350000206132E00220FFF709F928B10220FFF71D
:10351000BFF80220207028E00820FFF7FFF828B14C
:103520000820FFF7B5F8042020701EE02020FFF7E8
:10353000F5F828B12020FFF7ABF80620207014E042
:103540001020FFF7EBF828B11020FFF7A1F80520B5
:1035500020700AE04FF400752846FFF7DFF820B12D
:103560002846FFF795F80720207000214CF23A30EA
:10357000FFF7F2F8207870BD380000202DE9F05FE9
:103580008346DDE90A6714461D46DFF8B8A04FF010
:1035900000088AF80080CAF810804FF00109CAF8C4
:1035A0000C902948C0F80080012140F22A30FFF732
:1035B000D3F807FB06F15846FFF7E2FD0120FFF7BD
:1035C00073F8DAF80400022803D10602640A44EA18
:1035D000C5541E4D2E60102068604FF0400AC5F89B
:1035E00008A0C5F80C804FF4806BC5F810B02846D1
:1035F000FFF7DCF81020FCF7FBFF002820D1411E6C
:1036000005F1140001607743476090218160022139
:10361000C160C0F81080C0F81490FFF74BF82C6020
:1036200012206860C5F808A0C5F80C80C5F810B075
:103630002846FFF7BBF8BDE8F05F1220FCF7D8BFC3
:10364000BDE8F09F380000202C2C0140D828002035
:1036500010B5094A1060072050604020906000209B
:10366000D0604FF4806010611046FFF79FF8BDE80E
:1036700010400720FCF7BCBFD828002070B50546D5
:10368000002D16D00F48008901040F4801600D215C
:103690004160402181600021C1604FF4806101617F
:1036A000FFF784F80D20FCF7A3FF04461CB1204669
:1036B00070BD262070BD0020FFF742F8286020462C
:1036C00070BD000038000020D828002010B5084840
:1036D000002101600C22426040228260C160110121
:1036E0000161FFF763F8BDE810400C20FCF780BFD4
:1036F000D82800202DE9F04100256C1E2146154EEA
:1037000000E0491E706928B9306918B9307808B9E5
:103710000029F6D1002777610F4800E0641E016898
:10372000890401D5002CF9D1F068012803D1FFF7F5
:10373000CDFF0546F7602C4300D1042540F2FF5031
:10374000FEF7A0FF307810B13078BDE8F081284650
:10375000FBE7000038000020342C01402DE9F04147
:1037600000256C1E2146154E00E0491E706928B9DF
:10377000306918B9307808B90029F6D10027776187
:103780000F4800E0641E0168C90401D5002CF9D17E
:10379000F068012803D1FFF799FF0546F7602C4335
:1037A00000D1042540F2FF50FEF76CFF307810B1D5
:1037B0003078BDE8F0812846FBE7000038000020A3
:1037C000342C01402DE9F05F8246DDE90A6714469A
:1037D0001D46DFF804914FF0000889F80080C9F811
:1037E00010800120C9F80C003C48C0F8008001217D
:1037F00040F21A30FEF7B0FF07FB06F15046FFF724
:1038000003FD0120FEF750FFD9F80400022803D180
:103810000602640A44EAC554314D2E6010206860E7
:103820004FF0400BC5F808B0C5F80C804FF4806A23
:10383000C5F810A02846FEF7B9FF1020FCF7D8FE07
:10384000002847D1B9F808000004286037206860D4
:10385000C5F808B0C5F80C80C5F810A02846FEF7DA
:10386000A5FF3720FCF7C4FE002833D12F601720B6
:103870006860C5F808B0C5F80C80C5F810A02846E7
:10388000FEF794FF1720FCF7B3FE002822D12C602E
:1038900019206860C5F808B0C5F80C80C5F810A0FC
:1038A0002846FEF783FF1920FCF7A2FE002811D15D
:1038B00005F11402401E106077435760902090601D
:1038C000C2F80C80C2F81080012050611046FEF74B
:1038D000F1FE4046BDE8F09F380000202C2C01404E
:1038E000D8280020002904D0018841F0400101803F
:1038F0007047018821F04001018070472DE9F041B7
:1039000004460F4615460F4840260680032000F067
:103910000DF9C7F3074000F009F9C7F3072000F0DD
:1039200005F9F8B200F002F904E0FF2000F0FEF81B
:1039300004F8010B6D1EADB2F7D20248801E06805E
:10394000BDE8F0811A1402402DE9F04706460D4605
:10395000E8B24142CFB2140A02F0FF094FF4807876
:10396000002812D0E8B24042C0B205EB000A34B3DE
:10397000D01B80B2040A00F0FF093A4629463046BF
:1039800000F04CF855463E4439E074B929463046BB
:10399000BDE8F04700F042B842462946304600F004
:1039A0003DF805F5807506F58076641EE4B2F3D225
:1039B0004A4629463046BDE8F04700F02FB8B945E1
:1039C0000ED9A9EB0700C4B23A462946304600F0AA
:1039D00025F85146F0192246BDE8F04700F01EB820
:1039E00029463046BDE8F04700F018B8424629465F
:1039F000304600F013F805F5807506F58076641EF4
:103A0000E4B2F3D2B9F1000F06D04A462946304657
:103A1000BDE8F04700F002B8BDE8F0872DE9F041BD
:103A200005460F46144600F0D9F813484026068094
:103A3000022000F07BF8C7F3074000F077F8C7F3E7
:103A4000072000F073F8F8B200F070F8B00084427C
:103A500008D9044609A007F0C7FF03E0287800F062
:103A600065F86D1C641EA4B2F8D20348801E06805F
:103A7000BDE8F04100F092B81A1402403C3C2D46DB
:103A80004C4153482D4552524F522D3E3E205350EB
:103A9000495F464C4153485F50616765577269748E
:103AA0006520746F6F206C61726765210A000000E9
:103AB00070B50D48402404809F2000F037F8FF20A7
:103AC00000F034F80546FF2000F030F80646FF20ED
:103AD00000F02CF801460448801E0480280440EAC7
:103AE0000620084370BD00001A14024070B5044659
:103AF00000F074F800F052F80B48402505802020B3
:103B000000F014F8C4F3074000F010F8C4F30720E5
:103B100000F00CF8E0B200F009F80348801E0580C0
:103B2000BDE8704000F03AB81A1402402DE9F041A7
:103B30000746184C4FF480552560174E09E0206861
:103B4000411E216005D2002000F08CF8C0B2BDE813
:103B5000F0810221304600F05DF80028EFD03946B0
:103B6000304600F060F8256008E021684A1E2260B7
:103B700004D2012000F076F8C0B2E8E70121304617
:103B800000F048F80028F0D0304600F04AF8C0B203
:103B9000DDE70000280000200050014070B50D480E
:103BA000402505800520FFF7C1FF0B4CA8012060D0
:103BB000FF20FFF7BBFF21684A1E226004D2BDE848
:103BC0007040042000F04EB8C007F1D10148801EBB
:103BD000058070BD1A1402402800002010B5054869
:103BE000402404800620FFF7A1FF0248801E0480C5
:103BF00010BD00001A14024010B50548402404808E
:103C0000AB20FFF793FF0248801E048010BD000028
:103C10001A1402400246002012890A4200D00120F4
:103C20007047808970478181704730B5028802F4FF
:103C300041530A884C88CD8822438C882C432243E8
:103C40000C8922434C8922438C892243CC8922430C
:103C50001A430280828B22F400628283098A0182E5
:103C600030BD000010B5014602A007F0BDFE0020E7
:103C700010BD00003C3C2D464C4153482D4552524E
:103C80004F522D3E3E205350492054696D654F756B
:103C90007420216572726F72436F6465203D202528
:103CA000640A000010B58A07120F0F23934021F019
:103CB00003040649214401F608010C689C430C608A
:103CC0000B68904003430B6010BD000000300140C2
:103CD0001CB50021019100912E4A106840F48030FB
:103CE00010604FF4A043106800F400300090019879
:103CF000401C0190009810B901989842F3D11068C7
:103D0000800302D50120009000E000910098012876
:103D10003FD120484030016841F0805101601E4988
:103D2000086840F4404008601A480830036803609F
:103D3000036843F400430360036843F4A053036043
:103D4000041F164B2360136843F0807313601368DD
:103D50009B01FCD50A6842F480320A604A68D203AB
:103D6000FCD50A6842F400320A604A689203FCD526
:103D70000B4A40F205711160016821F003010160F6
:103D8000016841F0020101600168C1F3810102296B
:103D9000FAD11CBD0038024000700040195A40079B
:103DA000003C024010B5502080F31188BFF34F8FC4
:103DB000BFF36F8F0DF038FA18B104494FF08050FF
:103DC0000860002080F3118810BD000004ED00E0C1
:103DD00010B51248016841F4700101601048016893
:103DE00041F0010101600E4A0021083211600268B1
:103DF0000C4B1A400260031D0B4A1A60026822F441
:103E00008022026006480C300160FFF761FF034921
:103E10004FF000608039086010BD000088ED00E0C0
:103E200000380240FFFFF6FE1030002410B50B4CA6
:103E30000121204600F031F800280DD00848016823
:103E4000491E016007480168491C01602046BDE821
:103E50001040012100F012B810BD00000010004019
:103E6000240000203400002010B500F08BF8BDE8DD
:103E7000104000F029B8C94301827047C94301824C
:103E80007047002904D0018841F00101018070478A
:103E9000018821F001010180704702460020138A49
:103EA0000B4092890A40002B02D0002A00D001204A
:103EB0007047002A03D082890A4382817047828931
:103EC0008A438281704700003EB501211020FEF731
:103ED000B7FA0920019042F22730ADF80000094CF2
:103EE0006946204600F010F801212046FFF7C3FF85
:103EF000012211462046FFF7DCFF01212046FFF793
:103F0000C0FF3EBD0010004030B50288164C174D72
:103F1000A0420DD0A8420BD0B0F1804F08D0144B76
:103F2000984205D0134B984202D0134B984203D1CC
:103F300022F070034A881A43104B984206D0104B67
:103F4000984203D022F440730A891A4302804A68D7
:103F5000C2620A880285A04201D0A84201D1897AB2
:103F600001860121818230BD000001400004014032
:103F70000004004000080040000C00400010004019
:103F80000014004008B54FF44070FEF725FA3620C3
:103F90008DF8000000208DF8010003208DF802004C
:103FA00001208DF803006846FEF7E2F908BD000025
:103FB00030B587B001210846FEF718FA012110201C
:103FC000FEF74CFA00248DF81A4002208DF81800F4
:103FD00001208DF81B0003208DF819004FF40070AC
:103FE00005901B4D05A92846FCF7F2FF2915059100
:103FF00005A92846FCF7ECFF072209212846FDF712
:1040000025F807220A212846FDF720F84FF4E13071
:104010000190ADF80A40ADF80840ADF80C40ADF89D
:1040200010400C20ADF80E000A4C01A9204600F00B
:1040300057F800F012F80121204600F022F8012282
:1040400040F22551204600F02FF807B030BD0000A7
:104050000000024000100140704708B54FF4407066
:10406000FEF7BAF925208DF8000000208DF8010038
:104070008DF8020001208DF803006846FEF778F9FC
:1040800008BD002904D0818941F400518181704725
:10409000818921F4005181817047024600201288F5
:1040A0000A4200D00120704710B540F66A13C1F3F0
:1040B000421301F01F040121A140012B07D0022B64
:1040C00007D014303AB102680A43026010BD0C30C8
:1040D000F8E71030F6E702688A43026010BD00007E
:1040E0007FB504460D46208A20F44051E8880843F5
:1040F0002082A08941F20C618843A9882A89114352
:104100006A8902431143A181A08A20F44071A889E1
:104110000843A0826846FEF7BDF91E48844202D0DB
:104120001D48844201D1039800E00298A189090446
:1041300008D500EBC00101EB001029684900B0FB75
:10414000F1F007E000EBC00101EB001029688900E5
:10415000B0FBF1F06422B0FBF2F109010B096FF042
:1041600018056B4300EB8300A3891D044FF0320355
:1041700007D503EBC000B0FBF2F000F007000843E6
:1041800006E003EB0010B0FBF2F000F00F00084374
:1041900020817FBD0010014000140140C1F30801DF
:1041A00081807047FEE770B505460C462046FCF757
:1041B000C0F806463146284600F0A5FB002807D087
:1041C000002003E02A68215C1154401CB042F9D160
:1041D00070BD000001220AA10A4809F09DF810B143
:1041E00009A007F001FC01220EA10F4809F094F884
:1041F00010B10EA007F0F8FB02F010FFFEE7000080
:10420000313A0000081800200D0A666C61736820BE
:104210006D6F756E74206661696C6564202E2E2E3C
:104220000D0A0000303A0000D80700200D0A736420
:10423000206D6F756E74206661696C6564202E2E2A
:104240002E0D0A007CB501214020FEF7CFF84FF477
:104250000074009401208DF8040000208DF8060001
:1042600002228DF807208DF80500054D6946284685
:10427000FCF7AEFE21462846FCF7F8FE7CBD0000A8
:10428000001802400021016000F03DBB70B5012A1A
:1042900013D0022A13D0012401EA04060125954017
:1042A0006D1E1D40A31B53439D40514300EBD100A5
:1042B0003EB101782943017070BD0724ECE7032467
:1042C000EAE7057070BD07F0A3BB2DE9F8430D4682
:1042D000044608A9164618468EC996F800C004EB95
:1042E0004508BCF1000F0ED0BCF1020F24D0BCF188
:1042F000030F35D004EB8500BCF1040F43D0BCF1B3
:10430000060F51D05EE07268082A0ED0102A0ED037
:10431000C2F10800C14001209040401E01EA0003A4
:1043200029462046FFF7B2FF4CE061554AE088F885
:10433000011004F8151045E0766805EB4500082EDD
:1043400009D004EB4005697004F81010EA70AA70F7
:104350006B712B7136E0215420444270837031E040
:10436000009700F01FFB0346002B02DA5220BDE845
:10437000F8837268082A04D029462046FFF786FF92
:1043800020E063551EE07268082A02D0102A05D08A
:1043900018E004F8151088F8017013E0417004F873
:1043A0002510C77087700DE07668082E0CD004EBDE
:1043B000C500417004F83510C270827043710371FA
:1043C000C77187710020D2E704F82510427083700E
:1043D000C770F7E7FEE700002DE9FF4F8BB00F46EF
:1043E000DDF8609015461C464FF0000A0020029050
:1043F00001904FF0010B0B990860199800904B4603
:1044000022462946384600F0DBFEC4F82C0100287D
:104410000BD1396828680A4641435C2340B1B1FB9F
:10442000F0F0904204D0C4F82C310FB0BDE8F08F0A
:10443000B1F1805F02D3C4F82C31F6E706A800F092
:1044400076FA09F1210804F18C000A900C300990E9
:1044500006E1A8EB0903199903F10C00884201D881
:10446000C84506D2E069002802D11E20C4F82C01FC
:10447000FEE0404602F0C5F80646B6F1004F06D30E
:10448000E0690028F4D13F20C4F82C01F0E098192D
:1044900019990C30884204D808EB06000C304845C6
:1044A00003D24020C4F82C01E2E0404602F027FC91
:1044B0000090D3A1404602F095FCC8B1DDF81CB0D5
:1044C00006A80BEB060100F019FF08B100200AE076
:1044D0005320C4F82C01CBE00099069A0BEB0003A3
:1044E000095CD154401CB042F6D14FF0030BA4E05C
:1044F000C5A1404602F076FC10B14FF0010A9CE0E5
:10450000C3A1404602F06EFC58B1324600990998AA
:1045100000F0E0FAC4F82C010028A9D14FF0020BFA
:104520008BE0BDA1404602F05DFC48B132460099E7
:10453000099800F099FCC4F82C0100286DD17CE0AA
:10454000B7A1404602F04EFC48B1324600990A98A5
:1045500000F001FBC4F82C0100285ED16DE0B2A18F
:10456000404602F03FFC58B1606A50B332460099B1
:104570000A9800F012FCC4F82C01002878D15CE005
:10458000ABA1404602F02EFC58B1606AC8B1334678
:10459000211D009A0A9800F0A5FCC4F82C01E0BB8C
:1045A0004BE0A5A1404602F01DFC58B1606A40B145
:1045B0003346211D009A0A9800F007FBC4F82C012D
:1045C00058BB3AE09EA1404602F00CFC40B1324696
:1045D00000990A9800F031FCC4F82C01E8B92CE0ED
:1045E00099A1404602F0FEFB40B1324600990A987C
:1045F00000F0B1FBC4F82C0178B91EE0A06918B92D
:10460000404602F0E0FAA0B101200190A06AA0B1FA
:10461000ABF1010004EB800000E029E000F59071AF
:1046200000F58A70424601F0C2FFC4F82C01F8B9C7
:1046300003E04520C4F82C011AE0606948B90198EC
:1046400038B9404602F0C3FA18B13920C4F82C0139
:104650000EE0BAF1000F03D1404602F052FB804653
:10466000BAF1000F04D1D4F82C0100283FF4F1AEC8
:1046700003A800F05CF9D4F89400E8B3DDF82480D6
:1046800028684246C01DC1083868C01DC00802F035
:10469000C7FB01462868C01D01EBD0063968042914
:1046A0000BD9C308C91CC8084246194602F0B8FB1A
:1046B0002968C91D00EBD100064428684246C01C89
:1046C000C1083868C01C800802F0AAFB01462868AF
:1046D000C01C01EBD0010E44396802290ED9491CD7
:1046E00080088B0801464246184602F099FB29686B
:1046F000C91C00EB910000E02CE00644286842460B
:10470000401C81083868401C400802F089FB0146C3
:104710002868401C01EB90010E44396801290BD92F
:1047200040084B0801464246184602F079FB2968CA
:10473000491C00EB5100064428684246410838688D
:1047400002F06EFB296800EB51000644D4F82C01FE
:1047500040B10FE029683868099A02F061FB2968C6
:104760004618F3E7314603A800F0A5FE10B9532020
:10477000C4F82C01D4F82C0180B9201DDDE90623F2
:10478000009004A903A800F0D3FDC4F82C0128B9B7
:104790000498B04202D05B20C4F82C0106A800F0B7
:1047A00080FED4F82C0170B929683868099A01F0A4
:1047B0002AFF0290029800F070F90B99086010B976
:1047C0005320C4F82C01D4F82C01A0B900200021FA
:1047D00003E00B9A12681154401C029A9042F8D3DD
:1047E0000A9800900B982B683A680399006801F0CA
:1047F00036FFC4F82C0103A800F053FE15E60000B4
:10480000494441540000000049454E440000000066
:10481000504C54450000000074524E5300000000FC
:10482000624B4744000000007445587400000000CB
:104830007A54587400000000695458740000000055
:1048400074494D4500000000704859730000000095
:1048500030B54FF0FF330022064C07E0855C5D4029
:10486000EDB254F8255085EA1323521C8A42F5D341
:10487000D84330BD900300202DE9F043DDE908C99D
:10488000079E15781C0ADAB2002D1FD0330A4FEAB2
:104890001C27F6B20CF0FF0C022D1DD04FEA192890
:1048A00009F0FF09042D24D0062D0DD100F8314068
:1048B00000EBC10042708370C670077180F805C0BC
:1048C00080F8068080F80790BDE8F08300F811407A
:1048D00000EB41004270F7E701EB410100F81140A5
:1048E00000EB410042708370C670077180F805C00C
:1048F000EAE700F8214000EB8100427080F8028076
:1049000080F80390E0E770B504460D46691C206806
:1049100000F0F2FC002803D04FF000014155206068
:1049200002D04FF0010070BD4FF0000070BD0021BB
:1049300001608160416070470021016081604160D9
:1049400070472DE9F05F0546DDE90AAB0F4690465A
:104950009946002427FA04F0C007010F28FA04F052
:1049600000F0010001EB800129FA04F000F00100E1
:1049700001EB40012AFA04F000F001000E1855F88E
:10498000260030B9442000F088F845F8260000F0F1
:1049900027FB55F82650641C082CDBDBC5F840B01B
:1049A000BDE8F09FF0B5059E002421FA04F5ED075F
:1049B0002F0F22FA04F505F0010507EB850723FA0E
:1049C00004F505F0010507EB450726FA04F505F0A7
:1049D00001053D4450F8250020B1641C082CE4DB9F
:1049E000006CF0BD4FF0FF30F0BD2DE9FC470546EF
:1049F0000E46DDE90A0117461C4600222A60CDE971
:104A0000000123463A4631462846FFF7E5FCD4F834
:104A10002C01002821D1206A04F1980804F16C09C6
:104A200020B14146484602F074F950B1206A68BB93
:104A30004146484602F0E0F8C4F82C0100280CD1A9
:104A400024E0D5F800A094F86C00022807D00628CE
:104A500005D0206F082802D03820BDE8FC873968CF
:104A60004A46306801F0CFFD00F017F8286080B1A9
:104A700039683268CDE9002143464A46514600F084
:104A8000BAFAC4F82C015046FFF71DFCD4F82C01EB
:104A9000E3E75320C4F82C01F5E706F0E7BF30B593
:104AA0008B1A00D55B421CB2831A00D55B421DB243
:104AB00043189B1A9B1A00D55B421BB2A34203DA30
:104AC000AB4201DAD0B230BDA54201DAC8B230BD86
:104AD000C0B230BD2DE9F04104460E469046002597
:104AE000A068002801D0FFF7EEFB0327B8FBF7F022
:104AF000E0608000FFF7D1FFA06030B9E06820B12E
:104B00000020E0605320BDE8F081E068B0F5807FD0
:104B100001D92620F7E7002018E0A368715D6A1C20
:104B200003F82010531CB15C0125A26805EB800539
:104B300051555D1CF15C0223A26803EB8003D15444
:104B4000A26807EB8003FF21D154401CE168814239
:104B5000E3D10020D7E710B5037B0124032B07D056
:104B600083B1042B0ED0022B19D0062B17D02AE0CC
:104B7000012A01D02B2010BDC462097881634163F2
:104B8000016320E0022A01D02C2010BDC4624A78C3
:104B9000097802EB012181634163016313E0062A76
:104BA00001D02D2010BDC4624A780B7802EB03229D
:104BB0000263CA788B7802EB032242634A7909794F
:104BC00002EB01218163002010BD2DE9FF4F85B06C
:104BD00015461E460027B846B94602A8FFF7A7FEAD
:104BE000052E01D21E24A6E0002400E0641CB4427D
:104BF00002D2285D0028F9D1E01CB04201D34B2439
:104C000099E0601E4F2801D3592494E0601CFFF7FF
:104C100044FF0746380002D00020385504E05324F2
:104C200089E0295C3954401CA042FAD1281990F837
:104C300001A0807808B148247DE0E41C4FF0000B0F
:104C4000204602E00BF1010B401CB04202D2295C6D
:104C50000029F7D10BF10100FFF71FFF80465FEA43
:104C6000080003D0002008F80B0006E0532462E09F
:104C70002118695C08F80010401C5845F8D1A3447D
:104C80000BF1010B0024584601E0641C401CB042AB
:104C900002D2295C0029F8D1601CFFF7FEFE814694
:104CA0005FEA090003D0002009F8040007E053245C
:104CB00041E00BEB0001695C09F80010401CA042C8
:104CC000F7D15C44641CA64201D2002600E0361BEA
:104CD000BAF1000F14D0069800902A19334603A9A0
:104CE00002A800F025FB04462CBBDDE90310884236
:104CF00001D203980490002102A800F0EEFF11E019
:104D0000711C02A800F0FAFA18B102990020885527
:104D100006E053240FE02118029A695C1154401CEC
:104D2000B042F8D1029800904B4642463946059869
:104D300000F069FD04463846FFF7C5FA4046FFF724
:104D4000C2FA4846FFF7BFFA02A800F0AAFB09B072
:104D50002046BDE8F08F10B5092A01D04A2010BDC9
:104D6000012240F8782FCA780B788C7802EB036226
:104D70004B781B0403EB04231A444260CA790B7975
:104D80008C7902EB03624B791B0403EB04231A4476
:104D90008260097AC160002010BD2DE9F04781468C
:104DA0000E46904600250027002400E0641C444580
:104DB00002D2305D0028F9D1601E4F2801D359245A
:104DC00032E0601CFFF769FE05462DB14FF0000A86
:104DD00005F804A0002004E0532425E0315C2954A8
:104DE000401CA042FAD1641CA04502D24FF000083A
:104DF00001E0A8EB040808F10100FFF74EFE0746AA
:104E0000380003D007F808A0002005E053240BE089
:104E10002118715C3954401C4045F9D13A46294665
:104E2000484600F09BFA04462846FFF74CFA3846FD
:104E3000FFF749FA2046BDE8F087072A01D049204C
:104E400070470122C2654A780B7802EB03220266A2
:104E50008A784266CA7882660A79C2664A790267A7
:104E60008979416700207047F0B50378032B05D09E
:104E70000124A3B1022B1FD02A20F0BDC3689342A6
:104E800001D22620F0BD0023032405E0866804EB50
:104E90008307CD5CF5555B1C9342F7D120E0022AD5
:104EA00001D01E20F0BD04614A78097802EB01218F
:104EB000C1618161416113E0062A01D02920F0BD62
:104EC00004614A780B7802EB03224261CA788B783E
:104ED00002EB032282614A79097902EB0121C16167
:104EE0000020F0BD2DE9FF478046894615461F4644
:104EF000002601A8FFF71BFD002400E0641CBC4253
:104F000002D2285D0028F9D1A01CB84201D34B245D
:104F100032E0601E4F2801D359242DE0601CFFF7BA
:104F2000BCFD0646300002D00020305504E053247A
:104F300022E0295C3154401CA042FAD12819407863
:104F400008B1482418E0A41CBC4201D94B2413E04A
:104F50003B1B2A1902A901A8CDF8009000F0E8F93E
:104F600004464CB9002101A800F0B7FE3146404686
:104F7000019A00F0F3F904463046FFF7A4F901A8BE
:104F800000F08FFA04B02046BDE8F08710B5044663
:104F90002068FFF798F90020206010BD70B583B23B
:104FA000040C41F2AE5516E02846824200D8104665
:104FB000121A04E011F8016B33441C44401E00280F
:104FC000F8D14FF6F170B3FBF0F600FB1633B4FBEB
:104FD000F0F600FB1644002AE6D143EA044070BD17
:104FE0000021002240F82120491C1029FAD14FF05D
:104FF000FF31016470472DE9FF4F99B00F46DDE99D
:10500000268415461E4608FB04F94FF0000A314677
:10501000284601F07EFE80B132462146404601F02E
:10502000F2FA002103E0199A7B5C5354491C814237
:10503000F9D100201DB0BDE8F08F2878032821D1D8
:10504000E868D5F808B029794FF0010808FA01F8A6
:1050500010B9F068D6F808B0404500D2804608A8DC
:10506000FFF7BEFF00240BE00BEB8400C178CDE915
:10507000001483784278017808A8FFF762FC641C6A
:105080004445F1D170684FF00008102802D16868DB
:10509000102803D06868082827D029E0002421E0E0
:1050A000CDF81C80CDF81880CDF81480CDF8108094
:1050B000CDE9007404AB05AA06A907A8029600F082
:1050C000DEFEBDF81410BDF81820CDE90021BDF8B2
:1050D00010000290BDF81C302A4621461998FFF7AF
:1050E000CBFB641C4C45DBD144E02978062902D077
:1050F000082808D00AE000963B4601224946199844
:1051000000F048FF36E02878022809D0CDF81C804E
:10511000CDF81880CDF81480CDF81080002427E059
:1051200000963B4600224946199800F033FF21E0E3
:10513000CDE9007404AB05AA06A907A8029600F001
:105140008CFC9DF814109DF81C309DF818209DF8DB
:105150001000CDE90032CDE9021008AB2A46214605
:105160001998FFF7B2F882465FEA0A0002D1641C80
:105170004C45DDD12878032802D108A800F05DFC59
:10518000504657E74168007801F093B92DE9FE4396
:105190000446DDF828800D4616461F462A686846F4
:1051A000216801F0D9FA43463A463146684600F094
:1051B0003BF90099216001992960BDE8FE83000058
:1051C0002DE9F04107460698884615461C4605F12C
:1051D0008C06002807D034B1212808D21B20C5F83E
:1051E0002C01BDE8F0813020C5F82C01F9E73046EC
:1051F00001F019FA304600F083FB2078892814D199
:105200006078502811D1A0784E280ED1E078472838
:105210000BD120790D2808D160790A2805D1A07911
:105220001A2802D1E0790A2803D01C20C5F82C01E5
:10523000D7E704F10800034601F0E3F90D2803D095
:105240005E20C5F82C01CCE729A1184601F0CAFD63
:10525000E0B104F1100001F0F7F9386004F1140036
:1052600001F0F2F9C8F80000207E3061607E3073F2
:10527000A07E3060E07E7060207FB060386848B10A
:10528000D8F8000030B1686940B117E01D20C5F8BA
:105290002C01A6E75D20C5F82C01A2E704F11D0052
:1052A00001F0D2F90746112104F10C00FFF7D0FA02
:1052B000874203D03920C5F82C0192E7306818B135
:1052C0002020C5F82C018CE7706818B12120C5F8A2
:1052D0002C0186E7B068012803D92220C5F82C01EB
:1052E0007FE7307B316900F074FBC5F82C0178E76B
:1052F00049484452000000000AF0E6BF70B5054678
:105300000C462146284600F0D6F810B16C6001200A
:1053100070BD002070BD70B505460C46A100284642
:1053200000F0EBF810B16C60012070BD002070BD82
:1053300038B5049C6568002D02D00094A84738BD9C
:10534000009401F089FC38BD00210160416081605A
:1053500070470021C1630164416470472DE9F04149
:10536000044688461746E06B401C8100206CFFF71E
:10537000C3FF0646E06B401C8100606CFFF7BCFF7A
:10538000054626B31DB3E06B401CE06326646564EC
:10539000401E06EB8000FEF775FFD4E90F01401EAA
:1053A00001EB80004146FEF7FEFEE06B616C401EA3
:1053B00001EB8000FEF766FFE06B616C401E01EBC5
:1053C00080003946FEF7EFFE0020BDE8F081304650
:1053D000FEF779FF2846FEF776FF5320F5E7000039
:1053E00070B5014603220F4807F0BCFF4FF0FF35B0
:1053F00008B1284670BD0B4C2046E16807F0D1FE8D
:1054000020B1204607F0BEFE284670BDA4686FF0AC
:105410000040844200D12C46024807F0B3FE2046EB
:1054200070BD000098CA01202DE9FF41074688465B
:105430001446002003900026029025E00398801C6B
:10544000B0EBC40F03D3342004B0BDE8F081414673
:1054500003A800F08EFA0646414603A800F089FA38
:105460000546414603A800F084FA05EB40000328F6
:105470000DD070B1CDE9004002AB03AA41463846D9
:1054800000F00CFF0028DFD1002ED7D0DCE714207D
:10549000DAE702AB03AA41463846009401F039F836
:1054A000F0E770B504460025A56065602068FEF74A
:1054B0000AFF256070BD70B50446A06888420ED210
:1054C000B1EB400F01D90D4602E001EB4100450868
:1054D00029462068FFF710FF18B1A5602060012061
:1054E00070BD002070BD70B504460025A5606560E4
:1054F0002068FEF7E8FE256070BD70B50446A06820
:1055000088420ED2B1EB400F01D90D4602E001EB0B
:105510004100450829462068FFF7EEFE18B1A56056
:105520002060012070BD002070BD2DE9F0410546CE
:105530000F4616466C6839462846FFF7ECFE30B930
:105540000020BDE8F081286840F82460641CBC425B
:10555000F9D30120F5E72DE9F0470446DDE9080716
:105560000D4690461E46052873D2DFE800F0030B77
:105570001D336300002002E0295C2154401CB84226
:10558000FAD18BE0002002E0295C2154401CB0429B
:10559000FAD1304605E0821B295CA25C11442154FB
:1055A000401CB842F7D379E0B8F1000F0AD00020D0
:1055B00005E0295C18F8002011442154401CB84231
:1055C000F7D16BE0002002E0295C2154401CB84276
:1055D000FAD163E0B8F1000F19D0002006E0295C91
:1055E00018F8002001EB52012154401CB042F6D1C2
:1055F000304609E0811B18F80020615C11442A5CE8
:1056000002EB51012154401CB842F3D346E0002084
:1056100002E0295C2154401CB042FAD1304606E039
:10562000821B295CA25C01EB52012154401CB84250
:10563000F6D333E0B8F1000F1FD0002005E0295C5D
:1056400018F8002011442154401CB042F7D1B14653
:1056500010E026E0A9EB060018F8091018F8002061
:10566000205CFFF71CFA15F80910084404F809003B
:1056700009F10109B945EDD310E0002002E0295CF1
:105680002154401CB042FAD1304605E0821B295C0F
:10569000A25C11442154401CB842F7D30020BDE85D
:1056A000F0872420FBE700002DE9FF4FABB08046D8
:1056B000389E1746CDE9017304A8009003960CAB01
:1056C00014AA1CA923A800F019FB0DF18C090DF1F7
:1056D000700A082E3FD30020F508002431E0002393
:1056E0002AE004AA04FB013652F8202006FB052C10
:1056F000404951F82020383151F8201004FB012294
:105700003C491C3951F8201002FB071239491C3161
:1057100051F8201003FB01266E43002209E02C996A
:105720000CEB020B11F80B1006EB020B08F80B1038
:10573000521CAA42F3D35B1C59F820109942D0D8CE
:10574000641C5AF82010A142C9D8401C0728C4D1B3
:105750002FB0BDE8F08F002406FB07F02A9023A8A5
:1057600050F824A00AFB06FADDF8A8B0002738E0BC
:10577000002530E007FB0AF005FB060104A850F8FD
:10578000240001EBC00002901A4850F82410383071
:1057900050F8240007FB0010164900FB0BF01C39E1
:1057A00051F82420383151F8241005FB012101FB68
:1057B000060003904FF000090AE002A82C9901F0BE
:1057C00040FB0246414603A801F087FA09F10109AE
:1057D000B145F2D36D1C23A850F82400A842C9D8C3
:1057E0007F1C1CA850F82400B842C1D8641C072CA8
:1057F000B5D1ADE7A4E2030800218164C16401656D
:105800004165816570472DE9F05F04468B469146FE
:105810009A46A06C401C8100E06CFFF76DFD0646C7
:10582000A06C401C8100206DFFF766FD0746A06C50
:10583000401C8100606DFFF75FFD8046A06C401C3E
:105840008100A06DFFF758FD0546EEB3E7B3B8F150
:10585000000F47D0C5B3A06C401CA064E664276568
:10586000C4F85480A565401E06EB8000FEF70AFDD3
:10587000D4E91201401E01EB80005946FEF793FC6B
:10588000A06C216D401E01EB8000FEF7FBFCA06CBC
:10589000216D401E01EB80004946FEF784FCA06CA0
:1058A000616D401E01EB8000FEF7ECFCA06C616DA9
:1058B000401E01EB80005146FEF775FCA06CA16D07
:1058C000401E01EB800000E00CE0FEF7DBFCA06C6A
:1058D000A16D401E01EB80000A99FEF764FC0020D8
:1058E000BDE8F09F3046FEF7EEFC3846FEF7EBFCD5
:1058F0004046FEF7E8FC2846FEF7E5FC5320EFE7BC
:1059000070B5044604F10C0001F09AF90025A56079
:1059100025606560E562A563656325632046FFF742
:1059200018FD2046FFF768FFE565A5672046BDE83E
:10593000704001F02ABA2DE9F04106460F4615469F
:105940002846FFF74DFD0446002C02DA4E20BDE844
:10595000F0813C602046FFF7A0F8306018B9002CB9
:1059600001DD5320F3E72A462146BDE8F04100F06F
:105970005DBD026801EBD20102F007030978D9404E
:1059800001F00101521C0260084670472DE9FC47F6
:105990008146DDF828808A4616469F1B002001902C
:1059A0000090002511E0002409E0514601A801F013
:1059B00048FA02464946684601F0BAF8641CB44207
:1059C000F3D30198384401906D1C4545EBD3BDE8F5
:1059D000FC8707282DD2DFE800F0042C1016202CBD
:1059E0002600012927D0022925D0042923D00829FF
:1059F00021D010291FD02520704708291BD010293D
:105A000019D025207047012915D0022913D0042967
:105A100011D008290FD02520704708290BD0102954
:105A200009D025207047082905D0102903D025204A
:105A300070471F2070470020704770B5054600244E
:105A400055F8240028B1FFF7F8FF55F82400FEF7B9
:105A50003AFC641C102CF3D170BD2DE9F84F0646BA
:105A60000F46DDE90B040A9990461D4622784FF057
:105A700000094FF0FF0A01EB400C4FF0010B002A28
:105A80001AD0022A62D0032A7CD001EB8003042AB8
:105A900079D0062A0ED16268082A75D011F8302014
:105AA000327001EBC00081783970017988F80010FC
:105AB00080792870BDE8F88F6268082A1CD0102A07
:105AC0002AD00BFA02FBABF1010B4243009268466D
:105AD000626801F0C7F90146C1EB0120B0FBFBF0A1
