:020000040800F2
:10000000C054012079020008312100088D11000838
:100010002D210008F3040008992E000800000000BC
:10002000000000000000000000000000C101000806
:100030001D0600080000000015020008552A0008EF
:10004000970200089702000897020008970200082C
:10005000970200089702000897020008970200081C
:10006000970200089702000897020008970200080C
:1000700097020008970200089702000897020008FC
:1000800097020008970200089702000897020008EC
:1000900097020008970200089702000897020008DC
:1000A00097020008970200089702000897020008CC
:1000B00097020008970200089702000897020008BC
:1000C00097020008970200089702000897020008AC
:1000D00097020008152D00089702000897020008F3
:1000E00043060008970200089702000897020008DC
:1000F000970200089702000897020008970200087C
:10010000970200089702000897020008970200086B
:100110009702000897020008F12A000897020008D9
:10012000970200089702000897020008970200084B
:10013000970200089702000897020008970200083B
:10014000970200089702000897020008970200082B
:10015000970200089702000897020008970200081B
:10016000970200089702000897020008970200080B
:1001700097020008970200089702000897020008FB
:1001800097020008970200089702000897020008EB
:1001900097020008970200089702000897020008DB
:1001A000970200089702000897020008DFF80CD0B9
:1001B00000F034F900480047F1780008C0540120ED
:1001C0002A4B19680868B0E8F04F80F30988BFF33C
:1001D0006F8F4FF0000080F311887047000000001F
:1001E00006480068006880F3088862B661B6BFF30D
:1001F0004F8FBFF36F8F00DF00BF00BF08ED00E03F
:10020000DFF80C00016841F470010160704700BF25
:1002100088ED00E0EFF30980BFF36F8F134B1A688E
:100220001EF0100F08BF20ED108A20E9F04F10607B
:1002300008B44FF0500080F31188BFF34F8FBFF325
:100240006F8F08F0D9FB4FF0000080F3118808BCD5
:1002500019680868B0E8F04F1EF0100F08BFB0EC46
:10026000108A80F30988BFF36F8F70476000002009
:10027000EFF3058070470000074880470748804734
:1002800007480047FEE7FEE7FEE7FEE7FEE7FEE77A
:10029000FEE7FEE7FEE7FEE7892A0008C52300081F
:1002A000AD01000810B5431A934209D2831888188B
:1002B00003E010F8011D03F8011D521EF9D210BD14
:1002C00040EA01039B0703D009E008C9121F08C0D8
:1002D000042AFAD203E011F8013B00F8013B521E58
:1002E000F9D210BDD2B201E000F8012B491EFBD2B9
:1002F00070470022F6E710B513460A460446194631
:10030000FFF7F0FF204610BD421C10F8011B00292A
:10031000FBD1801A704700F04CB82DE9F05F05461C
:10032000002092469B4688460646814640241BE0B4
:10033000284641464746224600F082F853465A4630
:10034000C01A914110D311461846224600F016F803
:100350002D1A67EB01084F4622460120002100F0CC
:100360000DF817EB00094E41201EA4F10104DFDC5B
:10037000484631462A464346BDE8F09F202A04DB22
:10038000203A00FA02F1002070479140C2F12003A8
:1003900020FA03F319439040704700000348704768
:1003A0000248001D011F8860001D70478003002067
:1003B000704710B500F00DF8016919B10022026113
:1003C000884701E080688047AFF3008010B5AFF345
:1003D000008070B5FFF7E4FF04680546A4B920204B
:1003E00006F068FF040011D0094900202C60C4E920
:1003F00000010849A1602073206160610649A06185
:1004000009B100F02DF8E061204670BDAFF3008027
:1004100000000000CD03000800000000064C074D5E
:1004200006E0E06840F0010394E8070098471034C4
:10043000AC42F6D3FFF7BEFE90D10008C0D1000851
:10044000202A04DB203A21FA02F00021704721FA29
:1004500002F3D040C2F12002914008431946704790
:1004600010B5882006F026FF002801D00021017079
:1004700010BD802902D808B1017809B10020704769
:10048000012100F8081B704718B100F108029142E1
:1004900001D00020704700210170704770B58C18A2
:1004A00010F8015B15F0070301D110F8013B2A1188
:1004B00006D110F8012B03E010F8016B01F8016B75
:1004C0005B1EF9D12B0705D40023521E0DD401F871
:1004D000013BFAE710F8013BCB1A921C03E013F83A
:1004E000015B01F8015B521EF9D5A142D8D300206F
:1004F00070BD00BFFEE710B50121C80501F070FE18
:1005000000214FF4000001F06BFE10BD01460020F9
:10051000034A52680A400AB1012000E000207047F7
:1005200000B0024070B50021002200230024344DA9
:100530002D68344E3540324E356035462D6806689C
:1005400035432F4E356035466D6B25F007057563D5
:1005500035466D6B46683543294E7563456835B938
:10056000C5682902058A2A04057D2B0621E0456815
:10057000012D05D1C5682902058A2A04002318E047
:100580004568022D05D1C56869010569EA020023A5
:100590000FE04568032D06D1C56869010569AA0207
:1005A0004569EB0305E0C568290105692A0245692B
:1005B0002B0341EA0205866835431D43104EB66B96
:1005C00035430F4EB5638569F56335462D6C6FF382
:1005D0000D05356435462D6CC6693543084E3564C6
:1005E000858C2C0435466D6C05F0404575643546A8
:1005F0006D6C066A26433543014E756470BD00007C
:1006000000B00240FCE0FCFF0348006840F001003D
:10061000014908607047000000B00240704701B512
:1006200002E00098401E009000980028F9D108BD13
:1006300001B502E00098401E009000980028F9D112
:1006400008BD10B54FF4005000F010F838B101F0BB
:10065000C7FB00F067FC4FF4005000F001F810BD3C
:100660000149086070470000143C01400146002029
:10067000034A12680A400AB1012000E000207047D6
:10068000143C0140002123498279002A3AD00A46CD
:10069000126803689A430B461A600A1D12680368C1
:1006A0009A430B1D1A60027911440A6803681A43C1
:1006B0000A60184A0832126803689A43154B0833D7
:1006C0001A601A1D126803689A43124B0C331A60A1
:1006D0004279102A0ED11A1F126803681A430D4B73
:1006E00008331A601A1D126803681A43094B0C3349
:1006F0001A600DE00749427911440A6803681A43F9
:100700000A6005E0027911440A6803689A430A60A6
:1007100070470000003C014000B587B00121202057
:1007200001F04EFD0121080501F08AFD0522072197
:100730002E4800F089F9052208212C4800F084F9A0
:1007400005220921294800F07FF98020009002202D
:100750008DF805008DF8040000208DF806008DF856
:1007600007006946214800F027F94FF48070009097
:1007700069461E4800F020F94FF400700090694669
:100780001A4800F019F94020009001208DF804006B
:100790006946164800F010F94020144918310880C5
:1007A0000020ADF808004FF48270ADF80A00002078
:1007B000ADF80C000220ADF80E000120ADF81000DD
:1007C0004002ADF812000020ADF81400ADF816009C
:1007D0000720ADF8180002A9054802F06DF80121C4
:1007E000034802F05DF807B000BD000000140240AD
:1007F0000050014010B5024600200023102A03D10A
:100800004FF02044636E0FE0B2F5807F02D10A4CB6
:10081000236809E0B2F5805F03D1074C20342368D8
:1008200002E0054CD434236803EA01048C4201D071
:10083000002000E0012010BD840000A00021D0E9CC
:1008400000231A4383685B1E42EA4312C36842EAEC
:100850004321014A11607047500100A070B5002289
:100860000021002300240568AD00A5F1C045D5F89E
:1008700040216FF30E02D0E901563543C668354377
:10088000066935434669354386693543C66935434C
:10089000066A3543466A35432A43056835B9056813
:1008A000AD00A5F1C045C5F8402111E03B4D2B68D6
:1008B0006FF30E03D0E907563543466A35432B43A1
:1008C000364D2B600568AD00A5F1C045C5F8402147
:1008D000056875BB314D0835066855F8261001F0DE
:1008E0007041856A2D686D1E866A7668761E45EAB7
:1008F0000616856AAD686D1E46EA0526856AED68AE
:100900006D1E46EA0536856A2D8A6D1E46EA054645
:10091000856AAD8A6D1E46EA0556856A2D7E6D1E76
:1009200046EA056529431D4D0835066845F8261039
:1009300032E0FFE7194D0835066855F8261001F03A
:100940007041856A2D686D1E866A7668761E45EA56
:100950000616856AAD686D1E46EA0526856A2D8AEB
:100960006D1E46EA054529430C4D08352C6804F0F8
:100970007044856AED686D1E2E03856AAD8A6D1E12
:1009800046EA05552C434FF02045C5F84841034D34
:100990000835066845F8261070BD0000400100A02B
:1009A0000449096841EA40014FF02042C2F854115D
:1009B00070470000540100A0F0B50A460021002352
:1009C000002400BF3DE0012505FA01F3156805EAA2
:1009D00003049C4234D105684F000326BE40B54352
:1009E000056015794E00B5400668354305601579F8
:1009F000012D02D01579022D16D185684F000326EE
:100A0000BE40B543856055794E00B5408668354394
:100A10008560456801268E40B543456045689679F6
:100A20008E40B6B235434560C5684F000326BE40D0
:100A3000B543C560D5794E00B540C6683543C5603D
:100A4000491C1029BFD3F0BDF0B5002300244D0789
:100A5000ED0E02FA05F3CE1000F1200555F82650F0
:100A60004E07F70E0F26BE40B543CF1000F120060B
:100A700046F82750CE1000F1200555F8265045EADB
:100A80000304CE1000F1200545F82640F0BD418357
:100A900070470183704742694A40426170470AB11A
:100AA000018300E0418370472DE9FC410020009064
:100AB000019000244FF448754FF4F0760027802011
:100AC0008DF8000048208DF8010006226946BA2002
:100AD00000F04EF80446002C02DA0020BDE8FC814C
:100AE0009DF802009DF8031000EB012085B29DF8EF
:100AF00004009DF8051000EB012086B280208DF8DF
:100B000000004D208DF8010003226946BA2000F054
:100B10002FF80446002C01DA0020DFE79DF80200E0
:100B200000F003073B463246294602A006F080FB50
:100B30000120D3E73C3C2D4754502D494E464F2DC4
:100B40003E3E20585F4D4158203D2025642C2059C1
:100B50005F4D4158203D2025642C20545249474781
:100B60004552203D203078253032780A00000000C0
:100B70002DE9F04186B005460C4616464FF0FF378A
:100B80004FF0000800BF00BF0020ADF802008DF854
:100B900000500220ADF8040002940121ADF80E10BF
:100BA0008DF80C50B01E81B2ADF81010A01C05904D
:100BB00009E00221684600F077FD0746022F00D1C8
:100BC00004E008F10108B8F1050FF2DB00BFB8F14D
:100BD000050F08DB6078237840EA0321B21E3B460C
:100BE000034806F025FB384606B0BDE8F08100005A
:100BF000ECD0000838B50E480068009000256C1E47
:100C000000BF00BF0DE003226946BA20FFF7B0FF26
:100C100044B2002C01DD204638BD294605A006F06F
:100C200007FB2846691CCDB20528ECDB2046F3E71C
:100C3000E8C900083C3C2D4754502D4552524F52B4
:100C40002D3E3E20475450206932632074657374F2
:100C5000206661696C65642074696D652025642E69
:100C60000A0000002DE9FE4380460C4615464FF071
:100C7000FF36002700BF00BF0020ADF802008DF84E
:100C80000080A8B2ADF80400029408E00121684693
:100C900000F00AFD0646012E00D102E07F1C052F60
:100CA000F4DB00BF052F08DB6078237840EA0321DE
:100CB000AA1E3346024806F0BBFA3046BDE8FE8362
:100CC0003CD100082DE9F0474FF0FF3500264FF0EA
:100CD00000094FF0000AB82400BF00BF00F0DAFCA2
:100CE000FFF788FF0546002D05DA28A006F0A0FAD8
:100CF0002846BDE8F08700F069F82F48007818B959
:100D00002E4F4FF0BA0802E02D4F4FF0BA08F021F5
:100D10002C48FFF7EEFA424639462A48FFF7C2FA56
:100D20004FF00009022606E02648801E805D4844F8
:100D300000F0FF09761CA01C8642F5DB6FEA090073
:100D4000401CC1B21F4A921EA01C11540121E01C7C
:100D500011544FF0000A0BE0221D1A49891EBA20D7
:100D6000FFF780FF0546002D00DD04E00AF1010ACF
:100D7000BAF1050FF0DB00BF1348FFF750FC00F09D
:100D80008FFAFFF791FE0020B3E700003C3C2D47AF
:100D900054502D4552524F522D3E3E204932432051
:100DA000636F6D6D756E69636174696F6E20455216
:100DB000524F52210A0000003A030020D4000020C4
:100DC0008E0100204A020020FFFF0F0010B586B000
:100DD0004FF0FF342E4903C9CDE9040100BF00BF25
:100DE000082204A9BA20FFF7C3FE0446002C05DA46
:100DF00028A006F01DFA204606B010BD9DF815008B
:100E0000F0B99DF816009DF81710CDE900109DF877
:100E100014309DF813209DF8121029A006F008FA4E
:100E20009DF81200392830D19DF8130031282CD1BB
:100E30009DF81400312828D101202D49087024E0A4
:100E40009DF816009DF817109DF81520CDE900219A
:100E500002909DF814309DF813209DF8121025A0E3
:100E600006F0E6F99DF8120039280ED19DF813001E
:100E700031280AD19DF81400352806D19DF81500B7
:100E8000372802D100201A4908702046B4E7000034
:100E9000D0C900083C3C2D4754502D4552524F526A
:100EA0002D3E3E2047545020726561642076657265
:100EB00073696F6E206661696C65640A00000000EA
:100EC0003C3C2D4754502D494E464F2D3E3E204927
:100ED00043312056657273696F6E3A20256325632E
:100EE00025635F25303278253032780A0000000013
:100EF0003A0300203C3C2D4754502D494E464F2D7F
:100F00003E3E204943322056657273696F6E3A2027
:100F100025632563256325635F25303278253032CC
:100F2000780A000010B500BF00BF00F037F810BD10
:100F30002DE9F04104460D4616461F46094A32F98E
:100F40001410094A32F9140033462A4606F040FCD0
:100F500028B2054921F8140030B2024921F81400E2
:100F6000BDE8F081460300203C03002010B5044694
:100F7000084A32F91410084A32F9140006F040FC0D
:100F80004FF0FF30044921F81400024921F8140001
:100F900010BD0000460300203C0300202DE9F04F67
:100FA00099B05FA00068189028210EA8FFF7A1F95A
:100FB0005C4800680D900025A8464FF0BA0B00264B
:100FC00000200C900B900A90814600244FF0FF3ACD
:100FD00000BF00BF0C220DA95846FFF7C9FD82468D
:100FE000BAF1000F06DA51464FA006F021F919B008
:100FF000BDE8F08F9DF83680B8F1000F00D1F6E71C
:1010000008F0800000B97CE008F00F05052D00DD38
:1010100077E0012D17DD242101A8FFF76AF9414887
:10102000001D00680090681EC000821C694658467A
:10103000FFF79EFD8246681EC2000DF1020110A856
:10104000FFF730F900BF44480088A84221DD0024A2
:101050001BE0002715E0032000EBC7000DA9461890
:10106000307800F00F093D48005D484500D10AE0A6
:10107000681EB84203DC3949085DFFF777FF781C2A
:10108000C7B2AF42E7DB00BF641C3348008884422C
:10109000DFDB2DB3002420E0032000EBC4000DA90A
:1010A0004618307800F00F092C4800F8049070784A
:1010B000B17840EA01200C90F078317940EA0120C3
:1010C0000B907079B17940EA01200A904846DDE939
:1010D0000A320C99FFF72CFF641CAC42DCDB0DE0FC
:1010E0001D48008850B1002404E01C49085DFFF74A
:1010F0003DFF641C184800888442F6DB16480580D2
:1011000000BF032218A95846FFF7ACFD8246BAF18A
:10111000000F02DA12A006F08BF800BF67E70000AC
:10112000814E000074C900083C3C2D4754502D45A9
:1011300052524F522D3E3E20493243207472616E0E
:1011400073666572206572726F722E206572726EA0
:101150006F3A25640A200A00500300205203002041
:101160003C3C2D4754502D494E464F2D3E3E204984
:10117000324320777269746520656E645F636D64C5
:10118000206572726F72210A0000000000BFFEE746
:1011900021B1028842F48062028004E002884FF6A6
:1011A000FF331A400280704770B5024600240025C4
:1011B00000230020958A138B1B0445EA030626F0C2
:1011C0007F4404EA01068E4201D1012000E00020A4
:1011D00070BD21B1028842F00102028004E0028861
:1011E0004FF6FE731A400280704700001CB50121C3
:1011F000880501F015F80121882000F0E1FF0121A8
:10120000880301F01DF8042211462348FFF71CFC57
:10121000042205212048FFF717FC1020009002202F
:101220008DF804008DF8050001208DF806000020DF
:101230008DF8070069461848FFF7BEFB2020009094
:1012400069461548FFF7B8FB4FF400600090012095
:101250008DF8040002208DF8050000208DF80600AE
:1012600002208DF8070069460C48FFF7A5FB4FF4F4
:101270000050009001208DF8040002208DF8050038
:1012800000208DF8060002208DF80700694603480B
:10129000FFF792FB1CBD0000001C0240000C024046
:1012A00000B585B04FF40050009000208DF8040088
:1012B00002208DF8050000208DF8070069461548CA
:1012C000FFF77AFB0D21032001F014FB4FF40050CF
:1012D000039000208DF8100008208DF811000120E7
:1012E0008DF8120003A8FFF7CDF94FF4407000F01D
:1012F0005DFF28208DF8080000208DF809008DF88A
:101300000A0001208DF80B0002A800F013FF05B0C1
:1013100000BD0000000C024021B1028842F480723E
:10132000028004E002884FF6FF631A400280704793
:1013300021B1028842F40072028004E002884FF674
:10134000FF531A40028070470CB50246002000236C
:101350000193009300920B0F019321F07F41019BB9
:101360001BB1009B1433009303E0090C009B18335E
:101370000093009B1B680B400BB1012000E0002094
:101380000CBD00002DE9FF4704460D460026B1467E
:101390000427DFF8CC80A6884FF6C0700640684668
:1013A00000F05EFFDDF808802E48B8FBF0F01FFA71
:1013B00080F946EA0906A68020884FF6FE710840AB
:1013C000208000262849286888420CD828684000D8
:1013D000B8FBF0F087B2042F00DA04273E4309F18E
:1013E0000100208427E0E8884BF6FF71884206D18F
:1013F000286800EB4000B8FBF0F087B209E02868ED
:1014000000EBC00101EB0010B8FBF0F087B247F42D
:101410008047C7F30B0008B947F0010747F40040C5
:1014200006434FF4967009FB00F04FF47A7190FB7D
:10143000F1F0401C2084A683208840F00100208029
:1014400026884FF6F5300640A88869890843064388
:101450002680A889298908432081BDE8FF870000EC
:1014600000127A0040420F00A08601001FB5002044
:10147000ADF804004BF6FF70ADF806000A20ADF899
:1014800008004FF48060ADF80A000001ADF80C00D0
:101490000748009069460748FFF774FF0121054897
:1014A000FFF797FE01210348FFF772FE1FBD000002
:1014B000801A06000058004070B506460D461446D6
:1014C0004FF420403B49086009E03A490868411E52
:1014D000384A116018B9002000F0BAF870BD4FF416
:1014E00000313548FFF730FF0028EED101213248A6
:1014F000FFF712FF4FF480502E49086009E02D4994
:101500000868411E2B4A116018B9012000F0A0F8AC
:10151000E4E72A492848FFF747FE0028EFD00122D8
:101520003146254800F08AF84FF480502149086080
:1015300009E020490868411E1E4A116018B90220BE
:1015400000F086F8CAE71D49491C1B48FFF72CFE2E
:101550000028EED026E0012C07D100211648FFF725
:1015600017FE01211448FFF7E3FE4FF42040114914
:10157000086009E00F490868411E0E4A116018B959
:10158000032000F065F8A9E70C493F310A48FFF74E
:101590000BFE0028EED0084800F012F828706D1CF1
:1015A000601E84B2002CD6D101210348FFF7F0FD64
:1015B000002093E75803002000580040010003007A
:1015C0000146088AC0B270471CB54FF40050009025
:1015D00001208DF8040002208DF8050000208DF810
:1015E000060002208DF8070069461248FFF7E4F96B
:1015F0004FF400610F48FFF74AFA0F48FFF718F859
:101600004FF400610B48FFF744FA0B48FFF710F85E
:101610004FF40050009000208DF8040002208DF857
:10162000050000208DF8070069460248FFF7C4F95D
:101630001CBD0000000C0240FFFF0F0012B141F082
:10164000010101E001F0FE01018270470182704753
:1016500010B50446214602A005F0EAFDFF2010BDAA
:101660003C3C2D4754502D4552524F522D3E3E206A
:1016700049324320E7AD89E5BE85E8B685E697B6F1
:10168000216572726F72436F6465203D2025640A84
:101690000000000010B5FFF7A9FDFFF7E7FEFFF718
:1016A00093FFFFF7FDFD10BD2DE9F04105460F4604
:1016B0000024002600BF00BF00BF2BE004EB440065
:1016C00005EB8000807800F0010088B104EB440352
:1016D00005EB83039A8804EB440305EB83039968C5
:1016E00004EB440315F82300FFF7E6FE064610E07E
:1016F00004EB440305EB83031A7904EB440305EB85
:101700008303996804EB440315F8230000F00CF8F8
:101710000646641C0EB9BC42D0D116B13046BDE8B5
:10172000F0812046FBE7000070B505460C461646E2
:101730004FF420403649086009E035490868411EE9
:10174000334A116018B90420FFF782FF70BD4FF4CF
:1017500000313048FFF7F8FD0028EED101212D4877
:10176000FFF7DAFD4FF480502949086009E0284965
:101770000868411E264A116018B90520FFF768FF66
:10178000E4E725492348FFF70FFD0028EFD00022AA
:1017900029462048FFF752FF4FF480501C4908604B
:1017A00009E01B490868411E194A116018B9062052
:1017B000FFF74EFFCAE719491648FFF7F5FC002866
:1017C000EFD01AE021781348FFF740FF641C4FF474
:1017D00080500F49086009E00D490868411E0C4A15
:1017E000116018B90720FFF733FFAFE70B49891CD9
:1017F0000848FFF7D9FC0028EED0301EA6F1010101
:10180000CEB2DFD101210348FFF792FD00209DE712
:101810005803002000580040010003008200070028
:101820002DE9F0418AB08046FF24002500260027DC
:1018300019480068040E1848006800F47F00050C81
:101840001548008800F47F40060A13480778FEF721
:1018500052FE4FF440300090002001900495039612
:10186000029705940D4800680690002007904FF4F9
:10187000F07008904FF4487009906846FEF752FEE9
:10188000FEF7C2FE00BF0220FEF740FE0028FAD09D
:101890000AB0BDE8F08100002800002030000020E0
:1018A0001CB5012140F2FF1000F08AFC04200090DA
:1018B00002208DF805008DF8040000208DF8060048
:1018C0008DF807006946AF48FFF776F80E2202212F
:1018D000AC48FFF7B9F8082000906946A948FFF71F
:1018E0006BF80E220321A748FFF7AEF84FF4807083
:1018F00000906946A348FFF75FF80E220821A1482F
:10190000FFF7A2F80120009069469F48FFF754F8BE
:10191000092200219C48FFF797F84FF400600090DF
:1019200069469A48FFF748F80E220B219748FFF7BF
:101930008BF84FF48050009069469448FFF73CF8CC
:101940000E220C219148FFF77FF802200090694693
:101950008D48FFF731F8092201218B48FFF774F811
:101960004020009069468A48FFF726F80E2206219B
:101970008748FFF769F82020009069468548FFF7FF
:101980001BF80E2205218348FFF75EF840200090E7
:1019900069468048FFF710F80E2206217D48FFF7C0
:1019A00053F84FF40050009069467648FFF704F86A
:1019B0000E220D217348FFF747F84FF48060009026
:1019C00069467348FEF7F8FF09220A217048FFF7BD
:1019D0003BF84FF40040009069466A48FEF7ECFF80
:1019E0000E220F216748FFF72FF80120009069466B
:1019F0006948FEF7E1FF0E2200216748FFF724F84F
:101A00008020009069466548FEF7D6FF0E22072128
:101A10006248FFF719F80420009069465E48FEF717
:101A2000CBFF0E2202215C48FFF70EF81020009039
:101A300069465848FEF7C0FF0E2204215548FFF7BB
:101A400003F84FF48050009069465148FEF7B4FF08
:101A50000E220C214E48FEF7F7FF40200090694609
:101A60004F48FEF7A9FF0E2206214D48FEF7ECFF76
:101A70004FF40060009069464548FEF79DFF0E2236
:101A80000B214348FEF7E0FF1020009069464248D2
:101A9000FEF792FF0E2204213F48FEF7D5FF0820F3
:101AA000009069463948FEF787FF0E220321374828
:101AB000FEF7CAFF4FF48070009069463248FEF787
:101AC0007BFF0E2208213048FEF7BEFF4FF4007066
:101AD000009069462C48FEF76FFF0E2209212A4824
:101AE000FEF7B2FF8020009069462948FEF764FFA8
:101AF0000E2207212648FEF7A7FF4FF480600090D2
:101B000069462548FEF758FF0E220A212248FEF7B3
:101B10009BFF4FF40070009069461F48FEF74CFF92
:101B20000E2209211C48FEF78FFF4FF480600090C1
:101B300069461C48FEF740FF0E220A211948FEF7AD
:101B400083FF1020009002208DF8050001208DF801
:101B5000040000208DF8060001208DF8070069467A
:101B60000F48FEF729FF8020009069460C48FEF7D9
:101B700023FF10210A48FEF78CFF80210848FEF75A
:101B800088FF1CBD001C024000040240000002400F
:101B900000180240001002400020024000080240ED
:101BA000000C02400014024000B58FB001218806ED
:101BB00000F046FB0121C80500F002FBFFF770FEB4
:101BC00000F000FC062207214FF4D27000F0EEFB7B
:101BD0004FF4003000F0D8FB012000F0E1FB00BF23
:101BE0003D2000F0B1FB0028FAD0002000900190C9
:101BF000029003900C900D900E90049005902E2072
:101C000006901720079040F24E30089040F2F710EF
:101C100009904FF459700A9040F20D200B906846DD
:101C200000F022F9012000F00DF900F017F8012072
:101C300000F008F9002000F067F80748FFF7F0FD12
:101C4000012000F061F8FF2000F076F84FF0FF303F
:101C5000FFF7E6FD0FB000BDFF0000FF00B591B03B
:101C60002F20019040F24E3002901820039040F255
:101C7000F710049000200590FF2006900790089030
:101C800009900A904FF480600B9007200C9040F66A
:101C900083400E90C01E0F904FF4F07010901348C8
:101CA0000D9001A9124800F0B0F912480D904FF4C0
:101CB000C0600B9007200C9001A90D48803000F007
:101CC000A4F9012000F02CFA0121094800F092F952
:101CD00001210748803000F08DF9012000F020FA42
:101CE000054800F00BF811B000BD0000000040D026
:101CF00084680140007057D03C0000200149086012
:101D0000704700002400002030B90749074A1160DD
:101D10000021074A116005E00649044A11600121CB
:101D2000034A116070470000000040D030000020DE
:101D300034000020007057D010B5044608480068F1
:101D400020B92146074800F053F904E02146054830
:101D5000803000F04DF9012000F0E2F910BD0000E4
:101D600034000020846801401CB50121802000F06F
:101D700027FA4FF48050009001208DF804000220D3
:101D80008DF8050000208DF8070069460448FEF72D
:101D900013FE012211030248FEF781FE1CBD000064
:101DA000001C02401CB50121802000F009FA4FF40C
:101DB0000060009001208DF8040002208DF80500DD
:101DC00000208DF8070069460448FEF7F5FD012262
:101DD000D1020248FEF763FE1CBD0000001C024059
:101DE00010B54FF400610248FEF755FE10BD00002B
:101DF000001C02401CB50121802000F0E1F94FF4E5
:101E00008060009001208DF8040002208DF805000C
:101E100000208DF8070069460448FEF7CDFD012239
:101E200091020248FEF73BFE1CBD0000001C024070
:101E300010B54FF480610248FEF72DFE10BD000082
:101E4000001C024030B10749096841F00101054A10
:101E5000116005E00349096821F00101014A1160A0
:101E60007047000018680140F0B5002100220023EF
:101E70000024002500265B4F3F68DFF86CC107EAAD
:101E80000C07DFF860C1CCF80070078A3904674698
:101E90003F68D0F814C04CEA010C47EA0C07DFF8A1
:101EA00044C1CCF800700CF104073F68DFF838C17A
:101EB00007EA0C07DFF82CC10CF1040CCCF8007019
:101EC000078B3A0467463F68D0F81CC04CEA020C06
:101ED00047EA0C07DFF80CC10CF1040CCCF80070D9
:101EE0000CF104073F68DFF800C107EA0C07DFF8D0
:101EF000F4C00CF1080CCCF80070078C3B0467466A
:101F00003F68D0F824C04CEA030C47EA0C07DFF81E
:101F1000D4C00CF1080CCCF800700CF104073F6839
:101F2000DFF8C4C007EA0C07DFF8B8C00CF10C0CEE
:101F3000CCF80070078D3C046746D7F800C0C76A2C
:101F400027434CEA070C274F0C37C7F800C03F1D4A
:101F50003F68DFF898C007EA0C07DFF888C00CF18B
:101F6000100CCCF80070D0E9007C47EA0C07D0F8E0
:101F700008C047EA0C07D0F80CC047EA0C07DFF8A6
:101F800064C00CF1100CDCF800C047EA0C07DFF865
:101F900054C00CF1100CCCF80070476B3D02078E5A
:101FA0003E04104F24373F6807F07F47DFF834C006
:101FB0000CF1240CCCF8007046EA0507D0F838C0C4
:101FC00047EA0C07DFF81CC00CF1240CDCF800C059
:101FD00047EA0C07DFF80CC00CF1240CCCF80070B9
:101FE000F0BD00000868014000F800F08F88FE0F87
:101FF0004161704721B1026842F00102026003E0D2
:10200000026822F00102026070472DE9F0410024CD
:1020100000250026002200270023B1F804C04FEA63
:102020000C44D0F804C00CF4704CC0F804C0D1F8D3
:1020300000C04CEA040CC0F804C0B1F80CC04FEA70
:102040000C45D0F808C00CF4704CC0F808C0D1F8AA
:1020500008C04CEA050CC0F808C0D0F810C02CF03D
:10206000070CC0F810C0D1F810C0C0F810C0D1F8EB
:102070001CC04FEA0C26B1F820C04FEA0C4291F880
:1020800024C04FEA0C67D0F818C09C46C0F818C0AE
:10209000D1F818C04CEA060C4CEA020C4CEA070CCA
:1020A000C0F818C0D0F814C02CF0FF0CC0F814C051
:1020B000D1F814C0C0F814C0D0F81CC040F20778A2
:1020C0002CEA080CC0F81CC0D1E90AC84CEA080C7C
:1020D000C0F81CC0D0F828C09C46C0F828C0D1F871
:1020E00030C0C0F828C0B1F838C04FEA0C43D0F86F
:1020F0002CC00CF0E02CC0F82CC0D1F834C04CEA55
:10210000030CC0F82CC0D0F830C06FF30A0CC0F834
:1021100030C0D1F83CC0C0F830C0BDE8F08100004C
:1021200001490860704700002468014000BFFEE7D5
:102130007047000070B5002100230F22C4781CB343
:10214000174C246804F4E064C4F5E064C4F3072188
:10215000C1F10404E3B20A4144789C40E1B28478BE
:10216000144021430C07210E0E4C0578615504786C
:1021700004F01F050124AC4005786D11AD0005F198
:10218000E025C5F8004109E0047804F01F050124AA
:10219000AC40054D0678761145F8264070BD00002C
:1021A0000CED00E000E400E080E100E002490143C2
:1021B000024A1160704700000000FA050CED00E0D3
:1021C00029B1064A12680243044B1A6004E0034A2C
:1021D00012688243014B1A60704700003038024099
:1021E00029B1064A12680243044B1A6004E0034A0C
:1021F00012688243014B1A60704700001038024099
:1022000029B1064A12680243044B1A6004E0034AEB
:1022100012688243014B1A60704700003838024050
:1022200029B1064A12680243044B1A6004E0034ACB
:1022300012688243014B1A60704700004038024028
:1022400029B1064A12680243044B1A6004E0034AAB
:1022500012688243014B1A60704700004438024004
:10226000F0B5002100220024022500260223324F6F
:102270003F6807F00C0121B1042905D0082937D1A6
:1022800005E02E4F076036E02D4F076033E02A4F00
:102290003F1F3F68C7F38056274F3F1F3F6807F037
:1022A0003F036EB1264FB7FBF3F7DFF88CC0ACF1FC
:1022B000040CDCF800C0CCF3881C07FB0CF40CE029
:1022C0001E4FB7FBF3F7DFF870C0ACF1040CDCF87D
:1022D00000C0CCF3881C07FB0CF4174F3F1F3F686E
:1022E000C7F301477F1C7D00B4FBF5F7076002E0F0
:1022F000124F076000BF00BF0F4F3F6807F0F001AB
:102300000909104F7A5C0768D74047600A4F3F6859
:1023100007F4E051890A0B4F7A5C4768D740876021
:10232000054F3F6807F46041490B064F7A5C4768E8
:10233000D740C760F0BD0000083802400024F40018
:1023400040787D011400002010B5014600220023D2
:1023500000204A11012A02D10A4C236808E0022A0F
:1023600003D1084C7034236802E0064C74342368AF
:1023700001F01F02012494401C400CB1012000E038
:10238000002010BD0038024001460020034A1068BA
:1023900020F4403008431060704700008C38024041
:1023A00001490867704700000000474210B58301EB
:1023B00043EA016343EA0273014C236010BD00004D
:1023C0008838024000B593B000F02EF8012108468D
:1023D000FFF716FF022001900720029004200390CF
:1023E0000720049002200590069007900120089095
:1023F0000020099004200A9010200B9040200C909F
:1024000080000D9000200E904FF400600F9040006F
:1024100010900020119001A8129008A8FEF71EFA53
:1024200000F0D4F913B000BD1CB50121FC20FFF76A
:10243000C7FE02208DF804008DF8050000208DF8FD
:1024400006008DF80700012000906946D948FEF784
:10245000B3FA0C220021D748FEF7F6FA02200090CA
:102460006946D448FEF7A8FA0C220121D148FEF7AC
:10247000EBFA042000906946CE48FEF79DFA0C2244
:102480000221CC48FEF7E0FA082000906946C948CE
:10249000FEF792FA0C220321C648FEF7D5FA102067
:1024A00000906946C348FEF787FA0C220421C14810
:1024B000FEF7CAFA202000906946BE48FEF77CFA73
:1024C0000C220521BB48FEF7BFFA4FF48050009064
:1024D0006946B848FEF770FA0C221146B548FEF777
:1024E000B3FA4FF4005000906946B248FEF764FA20
:1024F0000C220D21AF48FEF7A7FA4FF48040009060
:102500006946AC48FEF758FA0C220E21A948FEF79E
:102510009BFA4FF4004000906946A648FEF74CFA3B
:102520000C220F21A348FEF78FFA01200090694684
:10253000A148FEF741FA0C2200219F48FEF784FAD9
:102540000220009069469C48FEF736FA0C220121D1
:102550009948FEF779FA1020009069469648FEF7F0
:102560002BFA0C2204219448FEF76EFA20200090EA
:1025700069469148FEF720FA0C2205218E48FEF7A5
:1025800063FA4FF48040009069468C48FEF714FAD5
:102590000C220E218948FEF757FA4FF400400090B4
:1025A00069468648FEF708FA0C220F218348FEF799
:1025B0004BFA0120009069468048FEF7FDF90C2295
:1025C00000217E48FEF740FA0220009069467B48D1
:1025D000FEF7F2F90C2201217848FEF735FA802047
:1025E000009069467648FEF7E7F90C220721744807
:1025F000FEF72AFA4FF48070009069467048FEF7A3
:10260000DBF90C2208216E48FEF71EFA4FF4007029
:10261000009069466A48FEF7CFF90C220921684804
:10262000FEF712FA4FF48060009069466448FEF7A6
:10263000C3F90C220A216248FEF706FA4FF4006043
:10264000009069465E48FEF7B7F90C220B215C4802
:10265000FEF7FAF94FF48050009069465848FEF7AB
:10266000ABF90C2211465648FEF7EEF94FF4005034
:10267000009069465248FEF79FF90C220D21504800
:10268000FEF7E2F94FF48040009069464C48FEF7AF
:1026900093F90C220E214A48FEF7D6F94FF4004078
:1026A000009069464648FEF787F90C220F214448FE
:1026B000FEF7CAF94FF48070009069463F48FEF774
:1026C0007BF90C2208213D48FEF7BEF94FF400705B
:1026D000009069463948FEF76FF90C220921374806
:1026E000FEF7B2F94FF48060009069463348FEF778
:1026F00063F90C220A213148FEF7A6F94020009028
:1027000069463048FEF758F90C2206212D48FEF79D
:102710009BF90120009069462B48FEF74DF90C22E9
:1027200000212948FEF790F94FF4006000906946B7
:102730002048FEF741F90C220B211E48FEF784F9D0
:102740004FF40040009069461B48FEF735F90C2213
:102750000F211948FEF778F94FF480700090694610
:102760001548FEF729F90C2208211348FEF76CF9E9
:102770008020009069461348FEF71EF90C220721BD
:102780001048FEF761F90220009069460C48FEF7F8
:1027900013F90C2201210A48FEF756F90120009096
:1027A00069460748FEF708F90C2200210448FEF7A5
:1027B0004BF91CBD0014024000180240000C0240FE
:1027C00000100240001C0240000802401FB5002417
:1027D000012000900820019000200290039000BF8B
:1027E00020210120FEF706F80028F9D16846FEF7FF
:1027F00025F80A2000F042F80220009008200190FD
:1028000000200290039000BF20210120FDF7F2FF7D
:102810000028F9D16846FEF711F80320009008203F
:102820000190022002900020039000BF202101208F
:10283000FDF7E0FF0028F9D16846FDF7FFFF40F201
:10284000222404200090082001900120029003948B
:1028500000BF20210120FDF7CDFF0028F9D16846F7
:10286000FDF7ECFF40F26A50FEF79AF800BF202116
:102870000120FDF7BFFF0028F9D11FBD01B581B0D0
:1028800000200090054901984843009002E000981C
:10289000401E009000980028F9D10CBDA0860100D0
:1028A00021B1028842F04002028004E002884FF623
:1028B000BF731A400280704710B50022028802F4EC
:1028C00041520B884C8823438C882343CC88234374
:1028D0000C8923434C8923438C892343CC8923438C
:1028E0001A430280838B4FF2FF74234083830B8A49
:1028F000038210BD30B500228B071C0F0F2303FA93
:1029000004F20B4B8C1053F824309343084C8D1079
:1029100044F8253023468C1053F824308C07240FBC
:1029200000FA04F42343024C8D1044F8253030BDE6
:10293000083801400CB50020019000904148006823
:1029400040F480303F49086000BF3E48006800F412
:10295000003000900198401C0190009818B901982F
:10296000B0F5A04FF1D13748006800F4003010B145
:102970000120009001E0002000900098012860D123
:1029800030484030006840F080502E4940310860A7
:102990002D48006840F440402B4908602948083021
:1029A00000682849083108600846006840F4004083
:1029B00008600846006840F4A05008602348091FDA
:1029C0000860081F006840F08070091F086000BFA1
:1029D0001C48006800F000700028F9D01A48006810
:1029E00040F480301849086000BF1748406800F480
:1029F00080300028F9D01448006840F400301249B3
:102A0000086000BF1048406800F400300028F9D08A
:102A100040F205700E4908600A480830006820F04E
:102A200003000849083108600846006840F00200C9
:102A3000086000BF03480830006800F00C00082858
:102A4000F8D10CBD0038024000700040195A400710
:102A5000003C024010B500BF502080F31188BFF346
:102A60004F8FBFF36F8F00BF06F0E0FB18B14FF040
:102A700080500449086000BF002080F3118800BF27
:102A800010BD000004ED00E010B51548006840F4EA
:102A90007000134908601348006840F001001149B4
:102AA000086000200F49083108600E4800680E4990
:102AB00008400C4908600D48091D0860081F00689F
:102AC00020F48020091F0860002006490C310860AE
:102AD000FFF730FF4FF0006001498039086010BDFA
:102AE00088ED00E000380240FFFFF6FE10300024C1
:102AF00010B50121064800F027F840B105480068EC
:102B0000401C044908600121014800F00EF810BD86
:102B1000001000403800002010B500F091F800F0DF
:102B20002DF810BDCA4302827047CA430282704723
:102B300021B1028842F00102028004E002884FF6CF
:102B4000FE731A400280704730B502460020002311
:102B50000024158A05EA0103958905EA010413B1E9
:102B60000CB1012000E0002030BD1AB183890B4375
:102B7000838102E083898B43838170470EB50121F5
:102B80001020FFF74DFB3120019042F22730ADF8C5
:102B900000006946084800F011F801210648FFF7D7
:102BA000C1FF012211460448FFF7DFFF012102485F
:102BB000FFF7BEFF0EBD000000100040002202889B
:102BC000184B98420ED0184B98420BD0B0F1804F62
:102BD00008D0164B984205D0154B984202D0154BA1
:102BE000984204D14FF68F731A404B881A43124B08
:102BF000984207D0114B984204D04FF6FF431A4039
:102C00000B891A4302804B68C3620B880385054B0E
:102C1000984202D0044B984201D18B7A038601235B
:102C2000838270470000014000040140000400401E
:102C300000080040000C004000100040001400405C
:102C400008B54FF44070FFF7B1FA36208DF8000058
:102C500000208DF8010003208DF8020001208DF87E
:102C600003006846FFF766FA08BD000000B587B0AC
:102C700001210846FFF7A4FA01211020FFF7E0FA2E
:102C800000208DF81A0002208DF8180001208DF820
:102C90001B0003208DF819004FF40070059005A962
:102CA0001A48FDF789FE4FF48060059005A9174882
:102CB000FDF782FE072209211448FDF7C5FE072211
:102CC0000A211248FDF7C0FE4FF4E13001900020C8
:102CD000ADF80A00ADF80800ADF80C00ADF8100032
:102CE0000C20ADF80E0001A9094800F067F800F0CB
:102CF00012F80121064800F022F8012240F2255185
:102D0000034800F035F807B000BD000000000240A5
:102D100000100140704708B54FF44070FFF746FAC5
:102D200025208DF8000000208DF801008DF80200AC
:102D300001208DF803006846FFF7FCF908BD21B1BA
:102D4000828942F40052828104E082894DF6FF7349
:102D50001A408281704702460020B1F5007F00D101
:102D600000BF13880B400BB1012000E0002070472A
:102D7000F0B50346002400260025002040F66A171F
:102D8000B94200D100BF1846C1F3421401F01F063A
:102D9000012707FA06F5012C01D10C3004E0022CC2
:102DA00001D1103000E014301AB107682F430760DA
:102DB00002E00768AF430760F0BD00002DE9FF4760
:102DC00005460E460024A14600BFA046B08900B1CA
:102DD00000BF2C8A24F44054F08804432C82AC8930
:102DE00041F20C608443B0883189084371890843FB
:102DF0000443AC81AC8A24F44074B0890443AC82AF
:102E00006846FFF72DFA2048854202D01F488542C8
:102E100002D1DDF80C9001E0DDF80890A88900F4FB
:102E2000004040B109EBC90000EB091031684900CE
:102E3000B0FBF1F707E009EBC90000EB09103168BE
:102E40008900B0FBF1F76420B7FBF0F00401200922
:102E5000642101FB1078A88900F4004040B13220C1
:102E600000EBC800B0FBF1F000F00700044308E0FD
:102E7000322000EB08106421B0FBF1F000F00F00ED
:102E800004432C81BDE8FF8700100140001401407D
:102E9000C1F308028280704700BFFEE700BFFEE773
:102EA00000F004F800BFFEE700BFFEE710B5ADF587
:102EB0005E7DD9A8A44901600021416000BFA349FB
:102EC0000160012101740021416000BF00BF0020AA
:102ED0009FA14FF4F0724FF44873CDE900210290A6
:102EE00002460146CEA801F079FE9B48D69000BF6D
:102EF000D9AACEA9CAA801F041FBCEA897A1412228
:102F00009623CDE900210290E6226421BEA801F0BB
:102F1000A7F9CEA891A141229623CDE900210290E4
:102F2000E6224FF4C871B2A801F09AF9CEA88DA19B
:102F30001E229623CDE90021029032226421A5A809
:102F400003F0B8FFCEA889A11E229623CDE9002167
:102F500002906422114698A801F08EFCCEA885A1AB
:102F60001E229623CDE9002102908C2264218BA899
:102F700001F082FCCEA881A11E229623CDE900217A
:102F80000290B42264217EA801F076FC8BA998A857
:102F900001F0FAFB7EA98BA801F0F6FB0120CEA977
:102FA00000221E23CDE90032CDE902104FF49673C2
:102FB0004FF4AF72642171A802F044FF0120CEA942
:102FC00000221E23CDE90032CDE902104FF49673A2
:102FD0004FF4C872642164A802F034FF0120CEA926
:102FE00000221E23CDE90032CDE902104FF4967382
:102FF0004FF4DC72642157A802F024FF0020CEA910
:103000004FF49673CDE900301E236422CDE90210FF
:103010004FF42F714AA802F015FFCEA859A11E2225
:103020003223CDE9002102904FF4AF72D9003DA8C0
:1030300001F0D0FFCEA854A1C822FA23CDE9002187
:10304000029032224FF496712DA802F0B5FA2DA805
:103050004FA13222BE23CDE900210290642240F22A
:103060003B1120A801F0B6FFCEA847A1C822FA2341
:10307000CDE90021029096224FF4AF7110A802F022
:103080009BFA10A845A141228223CDE9002102909C
:10309000C8224FF4CD7104A801F0E2F8404903C9F9
:1030A000A5ABCDE900013F4806C8BEA802F04AFB27
:1030B0003D4903C93DABCDE900013C4806C871A8B4
:1030C00002F040FBCAA801F09BF9CAA801F080F900
:1030D00004A801F014F910A802F0CFFA20A801F01A
:1030E000D0FF2DA802F0C9FA3DA801F0CAFF4AA8F6
:1030F00002F023FF57A802F020FF64A802F01DFF92
:1031000071A802F01AFF7EA801F016FC8BA801F04E
:1031100013FC98A801F010FCA5AC204601F00BFDB3
:10312000044600BFB2A801F0EAF8BEA801F0E7F833
:10313000CAA801F02AFACEAC204603F063FD04468B
:1031400000BF0DF55E7D10BD3CCF00081CCC000813
:10315000757365720000000000D7FFFF627574741C
:103160006F6E0000636865636B31000072616469B3
:103170006F310000726164696F32000072616469CE
:103180006F330000300000006469616C6F670000FD
:1031900068656C6C6F20776F726C640062746E008F
:1031A00004CA0008FCC9000814CA00080CCA0008B8
:1031B00005E0FEF73DFE6FF07F40FDF730FAF8E7DF
:1031C0002DE9F04788B005460E4617469846DDE9DA
:1031D00011A9109CB9F1000F12D001201B491C4A03
:1031E0001C4BCDE90332CDE905101B484346CDE920
:1031F000004202903A463146284600F01DF912E09E
:1032000001201249154A124BCDE90332CDE90510D0
:103210001048114943463A46CDE9004102903146F3
:10322000284600F009F90020084A4FF07F43CDE915
:103230000320CDE9004A0293059043463A463146C1
:10324000284600F0D3FB08B0BDE8F087DBDBDBFFEE
:10325000E5E5E5FF696969FFF7F7F7FFABABABFFA2
:103260002DE9F04782460E4617469846002544460B
:1032700033E03A1B7119504600F0A1FD3A1B711B57
:10328000504600F09CFD3A19711B504600F097FD26
:103290003A197119504600F092FD7A1931195046C9
:1032A00000F08DFD7A1B3119504600F088FD7A1B25
:1032B000311B504600F083FD7A19311B504600F057
:1032C0007EFD6D1C05FB05F004FB040008FB1809DE
:1032D000B9F1000F01DD641E6D1E162104FB01F023
:1032E000604308FB08F18842C3DABDE8F0870000BC
:1032F0002DE9F04F87B081460C4615461E46DDE9A4
:1033000011ABDDF84C80109F00201849184ACDE918
:103310000418039206901748174933462A46CDE908
:10332000007102902146484600F086F801201349BA
:10333000104ACDE90418039206900D490B4AA7F1F3
:103340002200331FCDE90121009005F12002A11CCC
:10335000484600F071F833462A4621464846CDE9F2
:1033600000AB00F00BFA07B0BDE8F08FABABABFFE2
:10337000E5E5E5FF696969FFF7F7F7FFDBDBDBFFF1
:103380002DE9F84F05460E4690461F46DDE90A9A9C
:10339000BB4600240CE0CDF800A01BF804302868E0
:1033A000808804FB00614246284600F01FF8641C38
:1033B0004C45F0DBBDE8F88F2DE9F04186B00446BE
:1033C0000D4616461F46DDF830803B4632462946FC
:1033D00002A8CDF8008001F068FC02A9204600F0A8
:1033E000B4FD06B0BDE8F081416070472DE9F041C1
:1033F00086B004460E4617461D46DDF83080A5F11E
:103400002000C5B22068C0880090206883883A46B2
:10341000314602A801F049FCCDF80080206801681F
:10342000C088684301EB40033A463146204600F02D
:103430001EFB06B0BDE8F0812DE9F84F80460D4631
:1034400014461E46DDF840B0DDE90B9A0A9F494656
:103450004046FFF7C9FFE019821E2B462946404629
:10346000009400F055FBA819831E224629464046C9
:10347000009400F04DFB51464046FFF7B5FFE019C0
:10348000401E0090A819431EE019421E29464046DE
:1034900000F03EFBA819431EE019421EA819411E68
:1034A0004046009400F034FB40460D99FFF79CFF26
:1034B000601C0090E019C21E6B1C691C404600F0A5
:1034C00027FB601C0090A819C31E621C691C4046A3
:1034D00000F01EFB40460E99FFF786FFE019801EA4
:1034E0000090A819831EE019821E691C404600F056
:1034F0000FFB601C0090A819831EE019821EA819FA
:10350000811E404600F004FBBBF1000F0BD040468B
:103510000F99FFF769FF381F331FA21CA91C0090E9
:103520004046FFF749FFBDE8F88F2DE9F047824696
:103530000E46174698460320A0EB4809002445464E
:1035400028E05DB16B007A1B311B504600F0EAFCAD
:103550006B007A1B3119504600F0E4FC5CB163004B
:103560003A1B711B504600F0DDFC63003A1B7119D9
:10357000504600F0D7FCB9F1000F04DA062000EB4A
:103580008400814405E0601B0A2101EB8000814436
:103590006D1E641CAC42D4D943463A46314650466F
:1035A000FFF75EFEBDE8F0872DE9FF4F8BB00E46BA
:1035B00017461D46DDF86080032095FBF0FBB946F9
:1035C000A800032190FBF1F41A98002820DA1C9A35
:1035D00011460B9800F0DAFC2B463A463146CDF8FE
:1035E00000800B98FFF7E8FE01206049604A614BBC
:1035F000CDE90332CDE905105F4806EB0B015B46D0
:10360000CDE9008202903A460B98FFF715FF34E0AF
:103610001A9800FB08F0642190FBF1F0384404EBA9
:10362000D471A0EB6100CDE905042B46024631467A
:1036300007A8009401F039FB1C9A11460B9800F082
:10364000A5FC2B463A463146CDF800800B98FFF793
:10365000B3FE01204549464A464BCDE90332CDE948
:103660000510454806EB0B015B46CDE90082029050
:103670003A460B98FFF7E0FE00BF199901FB08F1ED
:10368000642291FBF2F13944204604EBD072A1EBA5
:103690006209B94500DAB94607EB0800001B484546
:1036A00003DA07EB0800A0EB040900211B982B4666
:1036B0004A46CDE90041029031460B98FFF780FD64
:1036C0002D4A4FF07F410B9800F060FC2046E11737
:1036D00004EB917109EBA10A052095FBF0F071193B
:1036E000081A0A90052095FBF0F03044CDF800A0B0
:1036F000099052460146DDE90A3000F009FA2046F9
:1037000004EBD07109EB610A052095FBF0F071190B
:10371000081A0A90052095FBF0F03044CDF800A07F
:10372000099052460146DDE90A3000F0F1F92046E1
:10373000E11704EB917109EB0402A2EBA10A052049
:1037400095FBF0F07119081A0A90052095FBF0F02E
:103750003044CDF800A0099052460146DDE90A3018
:1037600000F0D6F90FB0BDE8F08F0000E5E5E5FF09
:10377000ABABABFF696969FFDBDBDBFF2DE9F04336
:1037800087B080460C4615461E46DDE90E79B9F134
:10379000000F1DD01E494046FFF726FE1E20331F96
:1037A000AA1CA11C00904046FFF706FE0020184A04
:1037B0004FF07F43CDE90320029305901E20331F75
:1037C000AA1CA11CCDE90007404600F00FF91CE03F
:1037D00010494046FFF708FE1E20331FAA1CA11CFB
:1037E00000904046FFF7E8FD00200A4A4FF07F4373
:1037F000CDE90320029305901E20331FAA1CA11CB3
:10380000CDE90007404600F0F1F807B0BDE8F083CD
:10381000EEB200FFDBDBDBFF2DE9FF4F8DB00F4683
:1038200016469946DDF870B01A9D032095FBF0FA14
:10383000B846A800032190FBF1F4BBF1000F1FDA9A
:103840001E9A11460D9800F0A1FB4B4632463946B0
:1038500000950D98FFF7B0FD01206049604A614B6B
:10386000CDE90332CDE905105F48CDE900A2029011
:1038700006EB0A024B4639460D98FFF7DDFD32E0B4
:103880000BFB09F0642190FBF1F0384404EBD47198
:10389000A0EB61002346324601460095CDE90604BF
:1038A00008A801F002FA1E9A11460D9800F06EFB6E
:1038B0004B463246394600950D98FFF77DFD0120B5
:1038C0004649474A474BCDE90332CDE90510464802
:1038D000CDE900A2029006EB0A024B4639460D984C
:1038E000FFF7AAFD00BF1B9901FB09F1642291FBC0
:1038F000F2F13944204604EBD072A1EB6208B845DE
:1039000000DAB84607EB0900001B404503DA07EB75
:103910000900A0EB040800211D9823463246CDE99A
:103920000051029041460D98FFF74AFC2E4A4FF095
:103930007F410D9800F02AFB2046E11704EB9171BE
:1039400008EBA1010C91052095FBF0F07119081A04
:103950000B90052095FBF0F030440A900B980090F6
:103960000C9B19460A9A0D9800F0D2F8204604EBF9
:10397000D07108EB61010C91052095FBF0F07119F5
:10398000081A0B90052095FBF0F030440A900B9834
:1039900000900C9B19460A9A0D9800F0B9F8204641
:1039A000E11704EB917108EB0402A2EBA1010C9169
:1039B000052095FBF0F07119081A0B90052095FB76
:1039C000F0F030440A900B9800900C9B19460A9A2C
:1039D0000D9800F09DF811B0BDE8F08FE5E5E5FF2A
:1039E000ABABABFF696969FFDBDBDBFF2DE9FC5F9C
:1039F00004460E4617469A46DDF83C90DDF83480C2
:103A000000BFC4F8089000BF20460E99FFF7ECFCF9
:103A1000B8F1000F01D1BDE8FC9F4FF0FF35C34660
:103A200000BF681C05461BF800000028F9D121687A
:103A3000898801FB15A000EBD07106EB61062168B7
:103A4000CA880C99881A00EBD07107EB6107002E29
:103A500001DB002F00DADEE7109843463A46314694
:103A6000CDE900502046FFF78BFC00BFD3E72DE9DE
:103A7000F84F04460F469146984600250026BA4660
:103A8000CB4600BF3EE0BA46002634E0206880887E
:103A90000C280CDC206880880C2190FBF1F0C10020
:103AA00080208840304138F81510084048B120681F
:103AB00080880C2817DD38F815100120B04001402F
:103AC00089B90A98A0B1606800902046A168FFF704
:103AD0008BFC5A465146204600F071F92046009969
:103AE000FFF782FC04E05A465146204600F067F991
:103AF0000AF1010A761C20688088B042C6D80BF112
:103B0000010B6D1C2068C088A842BCD8BDE8F88FA6
:103B10002DE9FF4F89B00C4615461E46169FB4424C
:103B200011D1AF4207DD781B431C2A462146099874
:103B300000F0F8F992E0E81B431C3A462146099848
:103B400000F0F0F98AE0BD4211D1A64207DD301B3A
:103B5000431C2A462146099800F0F8F87EE0A01B95
:103B6000431C2A463146099800F0F0F876E04FF001
:103B70000009CA46CB4600200890079006900590A1
:103B8000049080460390029001900090301B002822
:103B900001DD301B00E0A01B8146781B002801DD01
:103BA000781B00E0E81B8246A3460895A64203DB8B
:103BB00001200790069003E04FF0FF300790069039
:103BC000AF4203DB01200590049003E04FF0FF308B
:103BD00005900490D1450DDB002007900490C84665
:103BE000484609EBD07149100391CDF808A0CDF8F3
:103BF00004900CE0002006900590D04650460AEB59
:103C0000D07149100391CDF80890CDF804A00020A0
:103C100000901EE05946DDE9082000F0D0F8DDE90B
:103C20000210084403900398404509DB0398A0EB79
:103C30000800039007988344059908980844089061
:103C40000698834404990898084408900098401CFA
:103C50000090DDE900018842DCDD00BF0DB0BDE869
:103C6000F08F00002DE9FF4F87B00D4616469846AD
:103C7000DDE9159A149C179898B10120811E2F4AEE
:103C80002F4BCDE90332CDE905102E482E492346AE
:103C90003246CDE90041029029460798FFF7CCFB58
:103CA00011E00120811E264A264BCDE90332CDE9E1
:103CB000051025482346CDE90042029032462946A8
:103CC0000798FFF7B9FBBAF1000F23D04FF0FF328E
:103CD0001106079800F05AF93019801E2746009007
:103CE00004EBD77005EB6003A34604EBDB7006EB37
:103CF0006002A91C0798FFF70BFFB01C009004EBB3
:103D0000D77005EB60012819831E3019821E0798B1
:103D1000FFF7FEFE00214FF07F431898CDE9030125
:103D2000CDE9004902930591A8EB04032919324615
:103D30000798FFF75BFE0BB0BDE8F08FABABABFFB6
:103D4000E5E5E5FF696969FFF7F7F7FFF0B585B0CD
:103D500004460D4616461F4601203B46324629467C
:103D6000009001A800F0A1FF01A9204600F0EDF8A5
:103D700005B0F0BD2DE9F04F87B006460F469046DE
:103D80009946DDE911AB139D109C29463046FFF79B
:103D90002BFB4B464246394630460094FFF70CFB5E
:103DA0000020CDE903504B46424639468DE8100CC1
:103DB00005903046FFF71AFE07B0BDE8F08F70B5EA
:103DC00086B004460D461646012003463246294673
:103DD000009002A800F069FF02A9204600F0B5F8A3
:103DE00006B070BD2DE9F04F89B082460E461746E9
:103DF0009846DDF858B0129C204604EBD07106EBD3
:103E00006101089104EBD07107EB6101079104EBAC
:103E1000D0714D10159868B34FF0FF323E495046AF
:103E200000F0B4F86B1E5046DDE90721FFF77DFB7B
:103E30004FF0FF323949504600F0A8F805EB45092C
:103E40004FEAE97009EB907083105046DDE90721D5
:103E5000FFF76BFB4FF0FF321146504600F096F82B
:103E6000A94605EBD97043105046DDE90721FFF75D
:103E70005CFB2CE04FF0FF322949504600F086F8F9
:103E80006B1E5046DDE90721FFF74FFB4FF0FF3275
:103E90002149504600F07AF805EB45094FEAE970F0
:103EA00009EB907083105046DDE90721FFF73DFBD9
:103EB0004FF0FF321146504600F068F8A94605EB76
:103EC000D97043105046DDE90721FFF72EFB149807
:103ED00070B14FF0FF321106504600F057F8032042
:103EE00095FBF0F94B465046DDE90721FFF71DFB36
:103EF00000204FF07F42CDE903B002920590139865
:103F0000A8EB040331193A46CDE900405046FFF7CB
:103F10006DFD09B0BDE8F08FABABABFF696969FF20
:103F2000DBDBDBFFF0B585B005460E4617461C46C9
:103F300001233A46314601A8009400F0B6FE01A9DB
:103F4000284600F002F805B0F0BD2DE9FE4F054609
:103F50000C4600BF6168E068401A401C06462046D7
:103F600003F0F4F8074660688046206881462869B7
:103F700003F0ECF88246CDE9008702964B465146A5
:103F80006A68E86803F042FCBDE8FE8F4160826029
:103F900070470000034B0360002343608360C160EF
:103FA000026170473C0000202DE9F74F8EB00446B7
:103FB000A06808B1E06810B911B0BDE8F08F002525
:103FC0004DE0294629A003F033F9AA46D4F80C9015
:103FD0004F46D0464146384605F023FD8346BBF1A7
:103FE000000F02D0DBF8000000E0002083466F469F
:103FF000A946D4F808804946404603F00CF88246AA
:10400000BAF1000F04D0DAE90001C7E9000103E0CA
:104010001C4903C9C7E9000100BFDDE90001CDE982
:104020000C010BEB6106CDE90201CDE9040101F0C1
:10403000010020B9DDE90C01CDE9060107E0DDE969
:104040000C01CDE90801316808440B9000680A9022
:1040500030460A9BDDE90F129847681C05B2A0683C
:104060000169A942ADD800BFA6E70000436F6E6E9C
:10407000656374696F6E204E756D203D2025640A5E
:10408000000000006CCA00082DE9FF4104461D46EF
:10409000DDE90101C4E90001142003F0B5F806468A
:1040A00003F003F80646A060202003F0ADF80746B1
:1040B0002021FCF71EF9384602F002FE0746E060B8
:1040C000A06808B1E06818B9204604B0BDE8F081E6
:1040D000A068DDE90A1202F081FFD4F80C802946BD
:1040E000404605F07EFC00BF2046EEE72DE9F04398
:1040F00089B004460D461646204602F0E9FA80468D
:10410000204602F061FC814600F0C3FF07464246AC
:10411000394604A8FFF73EFF204601F06FFB074633
:10412000204602F0CDFA8046204602F0C3FA8146CE
:1041300001204B4600221146CDE90087029004A8D9
:10414000FFF73EF8204602F0E4FB012084F82C0043
:104150002B460548009606C8204601F08FFB04A8B0
:1041600000BF09B0BDE8F0832CCA00082DE9F04378
:1041700089B004460D461646204602F0A9FA80464C
:10418000204602F021FC814600F083FF07464246AC
:10419000394604A8FFF7FEFE204601F02FFB074634
:1041A000204602F08DFA8046204602F083FA8146CE
:1041B00000204B4602460146CDE90087029004A844
:1041C000FEF7FEFF204602F0A4FB002084F82C003E
:1041D0002B460548009606C8204601F04FFB04A870
:1041E00000BF09B0BDE8F08334CA000810B504462A
:1041F000204602F08EFB10BDF0B589B00446204683
:1042000002F066FA0646204602F0DEFB074600F0A2
:1042100040FF05463246294604A8FFF7BBFE20466C
:1042200001F0ECFA0546204602F04AFA064620461E
:1042300002F040FA074600203B4602460146CDE91F
:104240000065029004A8FEF7BBFF204602F061FB68
:10425000002084F82C0004A800BF09B0F0BD0000C5
:104260002DE9F04F89B004460D4616461F46DDE99C
:10427000128914983B4632462946CDE900890290BE
:10428000204600F031FC044617482060204602F02A
:104290001FFA8346204602F097FB039000F0F9FED8
:1042A00082465A46514604A8FFF774FE204601F0A4
:1042B000A5FA8246204602F003FA8346204602F021
:1042C000F9F9039094F82C00CDE900BA029000228D
:1042D000114604A8039BFEF773FF04A800BF204605
:1042E00009B0BDE8F08F00007CCA000870B5044634
:1042F000204600F004F8054602F07EFF70BD10B5C0
:104300000446204600F017FC0446204610BD70B558
:104310000446204600F004F8054602F06DFF70BD2B
:1043200010B5044605482060E06802F065FF2046AD
:1043300000F0A0FD0446204610BD0000ECCA0008B5
:10434000014600BF0869704710B50446204605F0D5
:10435000C9FC10BD70B504460D462946204605F03F
:10436000F7FC70BD70B504460D462946204605F0A1
:104370000FFD70BD10B50446204605F09DFC10BD34
:1043800010B50446204605F0D8FC10BD70B50446B3
:10439000204600F004F8054602F02EFF70BD10B56F
:1043A0000446204605F0A0FD044610BD10B50446A5
:1043B000A06860B122462046216800F033F8A0686A
:1043C00018B1A0680268516888470020A06010BD3D
:1043D000044606E02046E16800F07CF82046FFF73E
:1043E000E5FFF7E72DE9F04105460C462646A868AB
:1043F000074630683946826830469047BDE8F0810C
:1044000070B505462C682146204602F08DFA00BFA3
:1044100070BD10B50446206818B120680268516864
:10442000884710BD2DE9F05F80460E46174631469D
:104430003846FFF7D7FF00BFF0680446002C45D090
:1044400000BF204605F0C2FA0546204602F003FCF4
:104450008146204602F007FC8246284601F0CEF94C
:10446000834659461AA002F0E3FE3A4629464046E2
:10447000FFF7D8FF5146204602F0F9FB4946204697
:1044800002F0EDFB1CE0204602F0E5FB81462046F1
:1044900002F0E9FB8246284601F0B0F9834659460E
:1044A0000BA002F0C5FE3A4629464046FFF7BAFF88
:1044B0005146204602F0DBFB4946204602F0CFFB86
:1044C00000BF204605F041FA051EDCD1BDE8F09F93
:1044D00025730A002DE9FF4780460D460DB9BDE85A
:1044E000FF87286881682846884700BF686800B948
:1044F00036E000BF6868044621461BA002F098FE23
:104500006C4628680168284688470746286841683D
:104510002846884781462760C4F8049000BF1020D1
:1045200002F072FE064634466F68DDE90001CDE90F
:1045300002011048206067600020207200BF0E4812
:104540002060082002F060FE8146DDE90201C9E931
:104550000001C4F80C9000BF2646C8F8084000BF10
:1045600000BF00BFBBE7000074797065203D2025C7
:10457000640A000000CE0008ECCA00080160C260B6
:104580000123838000238360704710B504462046D2
:10459000FFF73FFF204610BD2DE9F04104460D46D0
:1045A00026462F463946304605F013F98046B8F1C5
:1045B000000F02D0D8F8000000E00020BDE8F08134
:1045C00017B593B00446204605F0D8F835E000BF93
:1045D000206900BF016803C9CDE91101CDE90101DE
:1045E000DDE91412CDE90312CDE90F12884220D182
:1045F000DDE91101CDE9050160B9DDE91101CDE980
:1046000007010846DDE90F12104300F00100CDE973
:10461000091250B1DDE91101CDE90B010846DDE9D0
:104620000F12CDE90D12904203D100BF606916B0A0
:1046300010BD204605F061F800BF00BF20690028CA
:10464000C5D1401EF3E710B50446204605F06BF8CF
:1046500010BD00002DE9F04F8BB004460D46164604
:10466000204602F035F88046204602F0ADF981463A
:1046700000F00FFD07464246394606A8FFF78AFCC0
:10468000204601F00BF8834601F01EFE0746204647
:1046900001F0B4F88046204602F012F88146204628
:1046A00002F008F88246012194F82D0053460022BA
:1046B000CDE90098CDE903170290114606A8FFF74F
:1046C00091FB204602F025F9012084F82C002B46AE
:1046D0000548009606C8204601F0D0F806A800BF9D
:1046E0000BB0BDE8F08F00003CCA00082DE9F04F88
:1046F0008BB004460D461646204600F049F8204689
:1047000001F0E6FF8046204602F05EF9814600F0A7
:10471000C0FC07464246394606A8FFF73BFC204648
:1047200000F0BCFF834601F0CFFD0746204601F0B4
:1047300065F88046204601F0C3FF8146204601F01F
:10474000B9FF8246002194F82D0053460A46CDE970
:104750000098CDE90317029006A8FFF743FB204617
:1047600002F0D7F8002084F82C002B46054800966C
:1047700006C8204601F082F806A800BF0BB0BDE8CD
:10478000F08F000044CA0008026B0A63016370479F
:1047900070B5044600BF94F82D0018B1002084F8CD
:1047A0002D0002E0012084F82D0000BF94F82D00B8
:1047B00068B1254607E02D6B002085F82D0028689C
:1047C000416E28468847286BA042F4D100BF70BDD7
:1047D00010B50446204602F09CF810BD2DE9F043C8
:1047E0008BB00446204601F073FF0646204602F0D7
:1047F000EBF8074600F04DFC05463246294606A870
:10480000FFF7C8FB204600F049FF814601F05CFD40
:104810000546204600F0F2FF0646204601F050FF14
:104820000746204601F046FF8046002194F82D00FF
:1048300043460A46CDE90076CDE90315029006A865
:10484000FFF7D0FA204602F064F8002084F82C002C
:1048500006A800BF0BB0BDE8F083026B824200D116
:104860007047014600E0096B0A6B8242FBD1026B84
:104870000A63006300BFF3E72DE9F04F8BB00446F5
:104880000D4616461F46DDF85080DDE915013B4612
:104890003246CDE9008002912946204600F024F9F5
:1048A00004461F4820602463002084F82D00204621
:1048B00001F00EFF8246204602F086F8834600F0A3
:1048C000E8FB81465246494606A8FFF763FB2046AF
:1048D00000F0E4FE049001F0F7FC8146204600F071
:1048E0008DFF8246204601F0EBFE8346204601F014
:1048F000E1FE059094F82C0094F82D10CDE900BA53
:10490000CDE9030902910022114606A8059BFFF795
:1049100069FA06A800BF20460BB0BDE8F08F000082
:10492000ACCB000870B50446204600F005F80546FB
:1049300002F062FC70BD000010B50446054820601E
:104940002046FFF78AFF204600F0F5F8044620468F
:1049500010BD0000ACCB0008017C11B10021017436
:1049600001E001210174704710B5044602F01EFFFA
:1049700048B3207C68B12046FFF7EEFF02212046B5
:1049800000F084FE02F018FFA06002F01BFFE06060
:1049900031E002F011FFA168884204D102F012FF59
:1049A000E16888420AD00521204600F06FFE02F03F
:1049B00003FFA06002F006FFE0601CE0002120463B
:1049C00000F064FE17E0207C68B92046FFF7C4FFC2
:1049D0000321204600F05AFE02F0EEFEA06002F035
:1049E000F1FEE06007E00021204600F04FFE4FF0AE
:1049F000FF30A060E06010BD0146C8687047014606
:104A000088687047704770477047704770477047B5
:104A10007047704770472DE9F04104460D4694F801
:104A20002C0088B1284602F056FB0646284602F0C4
:104A30004DFB074632463946204601F048FC18B97E
:104A40002068416E20468847BDE8F0817047704776
:104A5000704770472DE9F04104460D46284602F0A4
:104A60003AFB0746284602F031FB06463A463146F5
:104A7000204601F02CFC68B1284602F02CFB0646CB
:104A8000284602F023FB0746206832463946C36DAC
:104A900020469847BDE8F08170472DE9F041044673
:104AA0000D4694F82C00D8B1284602F014FB0646B7
:104AB000284602F00BFB074632463946204601F0F5
:104AC00006FC68B1284602F006FB0646284602F0BE
:104AD000FDFA0746206832463946036E204698475D
:104AE000BDE8F081704770472DE9FE4F04460D4642
:104AF00016461F46DDE90D9ADDF830803B4632460A
:104B0000294620468DE8000701F0DAFF04460448F4
:104B10002060002084F82C002046BDE8FE8F0000B5
:104B200030CC000870B50446204600F004F8054675
:104B300002F062FB70BD10B50446204602F062F838
:104B40000446204610BD7047704770477047704755
:104B5000704770477047704770477047704770479D
:104B60007047704770477047704770472DE9FE4F98
:104B700004460D4616461F46DDE90EABDDE90C89FD
:104B80003B463246294620468DE8000701F098FF53
:104B90000446054820600020E06284F8310084F873
:104BA00030B02046BDE8FE8FA0CC000870B50446AA
:104BB000204600F004F8054602F01EFB70BD10B55B
:104BC0000446204602F01EF80446204610BD10B5EB
:104BD0000446204601F09DFE10BD00002DE9FF4F68
:104BE00089B004460E461746DDE91789169D8DE803
:104BF00020033A46314620460C9B01F061FF0446F3
:104C00000F48206000BF60698246A06A00BF01684B
:104C10008B46524604A8FFF7BDF90A4A114604A87C
:104C2000FFF7B4F900950022114604A80C9BFEF78B
:104C3000C3FB04A800BF20460DB0BDE8F08F000004
:104C400014CD000800D7FFFF70B50446204600F0E1
:104C500004F8054602F0D0FA70BD10B504462046AF
:104C600001F0D0FF0446204610BD10B504680C1BAF
:104C70008368234483604468141BC3682344C3606F
:104C80000160426010BD4160704701607047816003
:104C9000704702680A44521E82607047C1607047C4
:104CA00042680A44521EC260704730B5039C0160DE
:104CB0004260CD186D1E856015196D1EC56030BD32
:104CC000002141600160491EC1608160704770B57C
:104CD00005460C46204602F08FFA70BD70B50446BA
:104CE0000E4615462946204600F007F861682A4618
:104CF00048683146FBF7D6FA70BD70B504460D46DC
:104D000060688068A84201D1012070BD35B90022D9
:104D10001146204600F02BF80120F6E76068406855
:104D200038B161684868294603F0C8FB616848608B
:104D300004E0284602F064FA6168486060684068F0
:104D400008B90020E1E7606885600120DDE770B503
:104D500005460C2002F058FA044600BF012101600C
:104D600000BF00BF00214160816000BF70BD2DE920
:104D7000F04104460F46154607B115B90026002537
:104D800019E06068006801280CD160688068A8425A
:104D900008D161682A4648683946FBF783FA2046FD
:104DA000BDE8F081284602F02BFA06462A4639462D
:104DB0003046FBF777FA6068006801280AD9606816
:104DC0000068401E616808602068C1682046884706
:104DD000606006E06068406818B16168486802F089
:104DE00007FA60684660606885602046D8E7000082
:104DF00010B50446034820602046FFF7A8FF606016
:104E0000204610BDE4CD000810B504460A482060D5
:104E1000606870B1606801F015FF50B1606840686B
:104E200018B16168486802F0E3F920466168FFF74D
:104E30004EFF204610BD0000E4CD000810B504462A
:104E400001A002F0F5F910BD2064656C6574652061
:104E50002D2D206576656E7420212121200A000009
:104E600070B50446204600F005F8054602F0C4F986
:104E700070BD000010B5044604482060207A10B1CF
:104E80002046FFF7DBFF204610BD000000CE0008E3
:104E9000704770477047704770477047704770475A
:104EA000704770477047704770477047704770474A
:104EB00070477047704700002DE9FE4F04460D46CD
:104EC00016461F46DDE90D9ADDF830803B46324636
:104ED000294620468DE8000701F0F2FD044602480D
:104EE00020602046BDE8FE8F10CE000870B5044655
:104EF000204600F004F8054602F07EF970BD10B5BA
:104F00000446204601F07EFE0446204610BD000007
:104F10002DE9F04704460F4690463946204600F0FA
:104F200073FC781CD8B9082002F06EF905462E46AD
:104F30003046FFF75DFF06460C48306000BF35463F
:104F4000A9464146484601F017F84E46606818B138
:104F50006068026851688847666000BF00BF2068CB
:104F6000C16820468847BDE8F0870000DCCF000814
:104F70002DE9F0418AB0044600BF60690546A06A89
:104F800000BF01680E462A4605A8FFF703F800BFD8
:104F9000206A0546204600F031FC0746204601F015
:104FA0008FFB0646204601F085FB8046E06A4346BB
:104FB00000221146CDE90067CDE9020505A8FEF7FC
:104FC000D9FE204601F0A5FC05A800BF0AB0BDE847
:104FD000F08100002DE9FF4F8BB004460D461646C8
:104FE000DDF86880189F1998CDE9010800973246CE
:104FF000294620460E9BFFF75FFF04461B482060B2
:105000004FF07F40E06200BFA16800BF086A00BFA8
:10501000206200BF00BF60698146A06A00BF0168CE
:105020008A464A4606A8FEF7B5FF00BF206A8146B9
:10503000204600F0E3FB8246204601F041FB834618
:10504000204601F037FB0590E06ACDE900BACDE9D2
:1050500002090022114606A8059BFEF78BFE06A852
:1050600000BF20460FB0BDE8F08F000074CE0008EE
:1050700070B50446204600F004F8054602F0BCF87E
:1050800070BD10B504462046FFF739FF04462046A0
:1050900010BD0146086870472DE9F05F0446884658
:1050A00016461D460A9F0020206005FB07F1880078
:1050B00002F0A6F820606560A760D4F80090C246B0
:1050C0004FF0000B0AE0B20051464846FBF7EAF801
:1050D0000AEB860A09EB85090BF1010BBB45F2D3FC
:1050E0002046BDE8F09F10B50446206810B1206846
:1050F00002F07EF8204610BD704770477047704739
:10510000704770477047704770472DE9F0438BB088
:1051100004460F4694F82C0000284FD0A06B401C8A
:1051200000284BD0384601F0D1FFA16B451A384614
:1051300001F0D1FFE16B461A204601F0C1FA80462A
:10514000204601F0B7FA8146CDF800804B4607A80B
:10515000D4E90C12FFF7A9FD204601F0B1FA804610
:10516000204601F0A7FA81464B463246294603A85D
:10517000CDF80080FFF799FD204601F0A9FA80469E
:1051800032462946FFF771FD2146204600F089FF8F
:10519000204601F0EAFB03A807A9CDE900610290CF
:1051A0002B462046D4E90C1200F021F903AA07A9E6
:1051B000204600F03FFF2563666300BF0BB0BDE8EB
:1051C000F08370477047704770472DE9F04188B011
:1051D00004460F46384601F07EFF0546384601F08A
:1051E00075FF06462A463146204601F070F8002831
:1051F0007DD000221146204600F01CFF94F82D00BF
:1052000038BB012084F82C0084F82D00204601F0E2
:105210005FFA0646A06A00BF01680D46324603A841
:10522000FEF7B8FE204600F0E9FA0546204601F0F8
:1052300041FA06460120334600221146CDE90050CE
:1052400003A8FEF79BFA204601F063FB03A800BF0A
:1052500000BF384601F03AFF0546204601F01FFA2C
:105260000646204601F026FA3044854226DA3846C2
:1052700001F031FF0546204601F016FA1E30854246
:105280001CDA012084F82C00384601F01FFF054687
:10529000204601F004FA281AA063384601F01BFFEB
:1052A0000546204601F000FA281AE063204601F086
:1052B000F6F92063204601F0F7F96063204601F01B
:1052C0000DF9002857D0204601F008F980464046E5
:1052D00004F033FD064600BFB068A04206D0204669
:1052E00001F0FCF806460021FFF73CF80BE043E034
:1052F00000BFA868A04206D0204601F0EFF806469D
:105300000021FFF72FF8204601F0E8F80646304666
:1053100004F0D2FC0546002DEAD100BFE06838B3A6
:1053200000BFE66800BF304604F050FB0546284643
:1053300001F0D4F838B1284601F0D0F806460068EC
:105340004168304688470BE0284601F0C7F838B17D
:10535000284601F0C3F80646006841683046884791
:1053600000BFE66800BF304604F0EFFA051EEBD13F
:10537000204601F0FAFA28E094F82D0028B3002026
:1053800084F82D00204601F0A3F90646A06A00BF6C
:1053900001680D46324603A8FEF7FCFD204600F0EA
:1053A0002DFA0546204601F085F9064600203346D1
:1053B00002460146CDE9005003A8FEF7DFF920467A
:1053C00001F0A7FA03A800BF00BF08B0BDE8F08154
:1053D0007047002280F82C20521E8263C2637047FF
:1053E000704710B50446204601F093FA10BD2DE930
:1053F000F05F80460E4614461F46DDE90B9A0A9D73
:10540000B74265DDAC4234DD711E4846FFF73DFC16
:10541000611E4846FFF737FCB81B811C4846FFF762
:1054200038FC404601F04CF92844001B00F1020B07
:1054300059464846FFF734FC711E5046FFF725FCDD
:10544000404601F03DF92844A0F1010B5946504671
:10545000FFF719FC404601F02DF900F1010B594608
:105460005046FFF716FC601B811C5046FFF718FCE6
:105470009FE0711E4846FFF708FC611E4846FFF793
:1054800002FC404601F016F900F1010B594648466E
:10549000FFF7FFFB281B811C4846FFF701FC711E2C
:1054A0005046FFF7F2FB691E5046FFF7ECFBB81BB6
:1054B000811C5046FFF7EDFB404601F001F92844FE
:1054C000001B00F1020B59465046FFF7E9FB70E064
:1054D000AC423ADD404601F0EDF83844A0F1010B52
:1054E00059464846FFF7D1FB611E4846FFF7CBFB04
:1054F000F01B811C4846FFF7CCFB404601F0E0F86A
:105500002844001B00F1020B59464846FFF7C8FB30
:10551000711E5046FFF7B9FB404601F0D1F8284410
:10552000A0F1010B59465046FFF7ADFB404601F094
:10553000C1F800F1010B59465046FFF7AAFB601B6A
:10554000811C5046FFF7ACFB33E0711E4846FFF765
:105550009CFB611E4846FFF796FB404601F0AAF807
:1055600000F1010B59464846FFF793FB281B811CAD
:105570004846FFF795FB404601F09CF83844A0F1FF
:10558000010B59465046FFF780FB691E5046FFF756
:105590007AFBF01B811C5046FFF77BFB404601F075
:1055A0008FF82044401B00F1020B59465046FFF78C
:1055B00077FBBDE8F09F70472DE9F04F8BB00446B4
:1055C0000D4616461F46DDE9148916983B463246BD
:1055D0002946CDE900890290204601F071FA04467F
:1055E0001F4820604FF0FF30A063E06320636063DA
:1055F000002084F82C00012084F82D001948206236
:1056000000BF204601F064F88346A06A00BF01682D
:105610008A465A4606A8FEF7BDFC00BF206A0590E0
:10562000204600F0EBF88246204601F049F8834618
:10563000204601F03FF8049094F82D100598CDE92C
:1056400000BACDE902100022114606A8049BFDF71E
:105650004FFE06A800BF20460BB0BDE8F08F00004B
:10566000D8CE0008E5E5E5FF70B50446204600F019
:1056700004F8054601F0C0FD70BD10B50446204693
:1056800001F0C0FA0446204610BD704741607047E3
:105690000146002070470146002070470146886897
:1056A00070472DE9F04107460C46E068D8B1E06844
:1056B00001F0F3FA054629463846FFF7F2FFE068A5
:1056C00001F0EBFA061E03D0306841683046884787
:1056D000E56800BF284604F02CF90021284604F0B4
:1056E000EAF900BF00BFBDE8F0810146C868704715
:1056F00070B505460C462846FFF7F7FF48B1284627
:10570000FFF7F3FF06462146304604F0CBF800BF12
:1057100000BF70BD70B506460C463046FFF7E5FF8A
:1057200070B13046FFF7E1FF054600BF0122214678
:10573000284604F0DBF8284604F0E4F900BF70BD09
:105740000020FCE72DE9FF4383B00446984620691A
:1057500078B9202001F058FD06462021FAF7C9FD4E
:105760003746384604F080F8074623483E463860FE
:1057700027612069DDE90412FEF722FF0546002DAE
:105780001ADB29462069FEF707FF8668294620694B
:10579000FEF702FFC7683046DDE90E1201F0F0FBAC
:1057A000002808DA3046DDE90E1201F017FC414608
:1057B000384601F06AFA1CE0102001F025FD06468B
:1057C000DDE90E014346CDE900013046DDE9041272
:1057D000FEF75AFC064637461FB9002007B0BDE861
:1057E000F083D4F810903946484603F0D2FF00BF4A
:1057F00000BF0120F2E7000084CB000810B504468A
:10580000606801F0EFFC10BD70B504460E4660689C
:1058100048B9082001F0F8FC0546314600F0E4FBE9
:105820000546606003E03146606800F0C8FB70BD6B
:105830002DE9F04104460D46E06878B9202001F0DA
:10584000E3FC06462021FAF754FD3746384604F0BB
:10585000BDF9074608483E463860E760E668012221
:105860002946304604F098F9002803DA2946E06812
:1058700001F00BFABDE8F0815CD000082DE9FF478C
:1058800004461D460C9F00BF2069A8B100BF2069D7
:105890008046DDE90112FEF793FE0646002E0ADB84
:1058A00000BF206981463146FEF776FE80463A46C3
:1058B0002946FEF779FB00BFBDE8FF8770B50446B7
:1058C0000E4615460948206000206060314620469B
:1058D000FFF79AFFA5601DB121462846FFF7A8FFF4
:1058E0000020E0602061204670BD000050CF00081D
:1058F00070B50446204600F005F8054601F07CFC32
:1059000070BD000010B504460F48206021462046B7
:10591000FFF7C7FEE06818B1E0680268D168884701
:10592000206938B101212069017100BF2069026836
:1059300051688847606828B1606818B1606802687B
:1059400051688847204610BD50CF00082DE9F04728
:105950008AB004460D461646204600F0B9FE804641
:10596000204601F031F88146FFF793FB0746424697
:10597000394605A8FEF70EFB94F8300060B32046C8
:1059800000F08DFE2F1A64204743204600F092FE5F
:1059900097FBF0F0E0622046FFF780FE824600F0C1
:1059A00093FC0746204600F08BFE8046204600F020
:1059B00081FE814601218A1EE06A4B46CDE90080C6
:1059C000CDE9031702920022114605A8FDF724FF36
:1059D000204600F09EFF2BE0204600F065FE371ABF
:1059E00064204743204600F06BFE97FBF0F0E06236
:1059F0002046FFF753FE824600F066FC074620462D
:105A000000F05EFE8046204600F054FE81460121F3
:105A10008A1EE06A4B46CDE90080CDE90317029269
:105A20000022114605A8FDF7BFFD204600F071FFDA
:105A3000012084F83100E26A20684FF0FF31C36E24
:105A4000204698472B460548009606C82046FFF793
:105A500015FF05A800BF0AB0BDE8F0875CCA0008C2
:105A60002DE9F0478AB004460D461646204600F060
:105A70002FFE8046204600F0A7FF8146FFF709FB76
:105A800007464246394605A8FEF784FA94F83000E6
:105A900058B3204600F003FE2F1A642047432046E7
:105AA00000F008FE97FBF0F0E0622046FFF7F6FDFD
:105AB000824600F009FC0746204600F001FE8046C1
:105AC000204600F0F7FD814600214A1EE06A4B4661
:105AD000CDE90080CDE9031702920A4605A8FDF73B
